{"abi":[{"type":"constructor","inputs":[],"stateMutability":"nonpayable"},{"type":"receive","stateMutability":"payable"},{"type":"function","name":"AERO","inputs":[],"outputs":[{"name":"","type":"address","internalType":"address"}],"stateMutability":"view"},{"type":"function","name":"BASE_TRANSACTION_COST","inputs":[],"outputs":[{"name":"","type":"uint256","internalType":"uint256"}],"stateMutability":"view"},{"type":"function","name":"CAKE","inputs":[],"outputs":[{"name":"","type":"address","internalType":"address"}],"stateMutability":"view"},{"type":"function","name":"CANCEL_REWARD_PCT","inputs":[],"outputs":[{"name":"","type":"uint256","internalType":"uint256"}],"stateMutability":"view"},{"type":"function","name":"FINALIZATION_REWARD_MULTIPLIER","inputs":[],"outputs":[{"name":"","type":"uint256","internalType":"uint256"}],"stateMutability":"view"},{"type":"function","name":"GRACE_PERIOD","inputs":[],"outputs":[{"name":"","type":"uint256","internalType":"uint256"}],"stateMutability":"view"},{"type":"function","name":"MAX_CANCEL_REWARD","inputs":[],"outputs":[{"name":"","type":"uint256","internalType":"uint256"}],"stateMutability":"view"},{"type":"function","name":"MAX_ENTRY_FEE","inputs":[],"outputs":[{"name":"","type":"uint256","internalType":"uint256"}],"stateMutability":"view"},{"type":"function","name":"MAX_FINALIZATION_REWARD_PCT","inputs":[],"outputs":[{"name":"","type":"uint256","internalType":"uint256"}],"stateMutability":"view"},{"type":"function","name":"MAX_GAS_PRICE","inputs":[],"outputs":[{"name":"","type":"uint256","internalType":"uint256"}],"stateMutability":"view"},{"type":"function","name":"MAX_PLAYERS","inputs":[],"outputs":[{"name":"","type":"uint256","internalType":"uint256"}],"stateMutability":"view"},{"type":"function","name":"MAX_REWARD_MULTIPLIER","inputs":[],"outputs":[{"name":"","type":"uint256","internalType":"uint256"}],"stateMutability":"view"},{"type":"function","name":"MIN_CANCEL_REWARD","inputs":[],"outputs":[{"name":"","type":"uint256","internalType":"uint256"}],"stateMutability":"view"},{"type":"function","name":"MIN_ENTRY_FEE","inputs":[],"outputs":[{"name":"","type":"uint256","internalType":"uint256"}],"stateMutability":"view"},{"type":"function","name":"MIN_FINALIZATION_REWARD","inputs":[],"outputs":[{"name":"","type":"uint256","internalType":"uint256"}],"stateMutability":"view"},{"type":"function","name":"OPERATIONS_BPS","inputs":[],"outputs":[{"name":"","type":"uint256","internalType":"uint256"}],"stateMutability":"view"},{"type":"function","name":"PLATFORM_BPS","inputs":[],"outputs":[{"name":"","type":"uint256","internalType":"uint256"}],"stateMutability":"view"},{"type":"function","name":"PRIZE_POOL_BPS","inputs":[],"outputs":[{"name":"","type":"uint256","internalType":"uint256"}],"stateMutability":"view"},{"type":"function","name":"REWARD_WINDOW","inputs":[],"outputs":[{"name":"","type":"uint256","internalType":"uint256"}],"stateMutability":"view"},{"type":"function","name":"START_REWARD_PCT","inputs":[],"outputs":[{"name":"","type":"uint256","internalType":"uint256"}],"stateMutability":"view"},{"type":"function","name":"USDC","inputs":[],"outputs":[{"name":"","type":"address","internalType":"address"}],"stateMutability":"view"},{"type":"function","name":"WETH","inputs":[],"outputs":[{"name":"","type":"address","internalType":"address"}],"stateMutability":"view"},{"type":"function","name":"addOperationsFund","inputs":[{"name":"gameId","type":"uint256","internalType":"uint256"}],"outputs":[],"stateMutability":"payable"},{"type":"function","name":"applyPenalty","inputs":[{"name":"gameId","type":"uint256","internalType":"uint256"},{"name":"player","type":"address","internalType":"address"},{"name":"token","type":"address","internalType":"address"},{"name":"amount","type":"uint256","internalType":"uint256"},{"name":"amountUSDC","type":"uint256","internalType":"uint256"},{"name":"txHash","type":"bytes32","internalType":"bytes32"},{"name":"gasCost","type":"uint256","internalType":"uint256"}],"outputs":[],"stateMutability":"nonpayable"},{"type":"function","name":"approvedProtocolList","inputs":[{"name":"","type":"uint256","internalType":"uint256"}],"outputs":[{"name":"","type":"address","internalType":"address"}],"stateMutability":"view"},{"type":"function","name":"approvedProtocols","inputs":[{"name":"","type":"address","internalType":"address"}],"outputs":[{"name":"","type":"bool","internalType":"bool"}],"stateMutability":"view"},{"type":"function","name":"authorizedReporters","inputs":[{"name":"","type":"address","internalType":"address"}],"outputs":[{"name":"","type":"bool","internalType":"bool"}],"stateMutability":"view"},{"type":"function","name":"canGameStart","inputs":[{"name":"gameId","type":"uint256","internalType":"uint256"}],"outputs":[{"name":"canStart","type":"bool","internalType":"bool"},{"name":"reason","type":"string","internalType":"string"}],"stateMutability":"view"},{"type":"function","name":"cancelGame","inputs":[{"name":"gameId","type":"uint256","internalType":"uint256"}],"outputs":[],"stateMutability":"nonpayable"},{"type":"function","name":"commitStartingValues","inputs":[{"name":"gameId","type":"uint256","internalType":"uint256"},{"name":"playerAddresses","type":"address[]","internalType":"address[]"},{"name":"valuesUSDC","type":"uint256[]","internalType":"uint256[]"}],"outputs":[],"stateMutability":"nonpayable"},{"type":"function","name":"createGame","inputs":[{"name":"totalRounds","type":"uint256","internalType":"uint256"},{"name":"roundDuration","type":"uint256","internalType":"uint256"},{"name":"entryFee","type":"uint256","internalType":"uint256"},{"name":"registrationPeriod","type":"uint256","internalType":"uint256"},{"name":"minPlayers","type":"uint256","internalType":"uint256"}],"outputs":[{"name":"","type":"uint256","internalType":"uint256"}],"stateMutability":"payable"},{"type":"function","name":"currentGameId","inputs":[],"outputs":[{"name":"","type":"uint256","internalType":"uint256"}],"stateMutability":"view"},{"type":"function","name":"emergencyWithdraw","inputs":[],"outputs":[],"stateMutability":"nonpayable"},{"type":"function","name":"finalizeRound","inputs":[{"name":"gameId","type":"uint256","internalType":"uint256"},{"name":"roundNumber","type":"uint256","internalType":"uint256"},{"name":"gasCost","type":"uint256","internalType":"uint256"}],"outputs":[],"stateMutability":"nonpayable"},{"type":"function","name":"gamePlayerList","inputs":[{"name":"","type":"uint256","internalType":"uint256"},{"name":"","type":"uint256","internalType":"uint256"}],"outputs":[{"name":"","type":"address","internalType":"address"}],"stateMutability":"view"},{"type":"function","name":"games","inputs":[{"name":"","type":"uint256","internalType":"uint256"}],"outputs":[{"name":"gameId","type":"uint256","internalType":"uint256"},{"name":"startTime","type":"uint256","internalType":"uint256"},{"name":"endTime","type":"uint256","internalType":"uint256"},{"name":"currentRound","type":"uint256","internalType":"uint256"},{"name":"totalRounds","type":"uint256","internalType":"uint256"},{"name":"roundDuration","type":"uint256","internalType":"uint256"},{"name":"playerCount","type":"uint256","internalType":"uint256"},{"name":"prizePool","type":"uint256","internalType":"uint256"},{"name":"active","type":"bool","internalType":"bool"},{"name":"finalized","type":"bool","internalType":"bool"},{"name":"cancelled","type":"bool","internalType":"bool"},{"name":"entryFee","type":"uint256","internalType":"uint256"},{"name":"registrationDeadline","type":"uint256","internalType":"uint256"},{"name":"minPlayers","type":"uint256","internalType":"uint256"},{"name":"operationsFund","type":"uint256","internalType":"uint256"},{"name":"platformFee","type":"uint256","internalType":"uint256"},{"name":"totalGasReimbursed","type":"uint256","internalType":"uint256"},{"name":"totalGasSpent","type":"uint256","internalType":"uint256"}],"stateMutability":"view"},{"type":"function","name":"getAdjustedBalances","inputs":[{"name":"gameId","type":"uint256","internalType":"uint256"},{"name":"playerAddr","type":"address","internalType":"address"}],"outputs":[{"name":"","type":"uint256","internalType":"uint256"},{"name":"","type":"uint256","internalType":"uint256"},{"name":"","type":"uint256","internalType":"uint256"},{"name":"","type":"uint256","internalType":"uint256"}],"stateMutability":"view"},{"type":"function","name":"getApprovedProtocols","inputs":[],"outputs":[{"name":"","type":"address[]","internalType":"address[]"}],"stateMutability":"view"},{"type":"function","name":"getAuthorizedReporters","inputs":[],"outputs":[{"name":"","type":"address[]","internalType":"address[]"}],"stateMutability":"view"},{"type":"function","name":"getCancelReward","inputs":[{"name":"gameId","type":"uint256","internalType":"uint256"}],"outputs":[{"name":"reward","type":"uint256","internalType":"uint256"},{"name":"canCancel","type":"bool","internalType":"bool"}],"stateMutability":"view"},{"type":"function","name":"getCancelledGameProfits","inputs":[{"name":"gameId","type":"uint256","internalType":"uint256"}],"outputs":[{"name":"totalProfits","type":"uint256","internalType":"uint256"}],"stateMutability":"view"},{"type":"function","name":"getEntryFeeRequirement","inputs":[{"name":"minPlayers","type":"uint256","internalType":"uint256"}],"outputs":[{"name":"minimumFee","type":"uint256","internalType":"uint256"},{"name":"explanation","type":"string","internalType":"string"}],"stateMutability":"pure"},{"type":"function","name":"getFinalizationReward","inputs":[{"name":"gameId","type":"uint256","internalType":"uint256"},{"name":"roundNumber","type":"uint256","internalType":"uint256"}],"outputs":[{"name":"estimatedReward","type":"uint256","internalType":"uint256"}],"stateMutability":"view"},{"type":"function","name":"getGameFinancials","inputs":[{"name":"gameId","type":"uint256","internalType":"uint256"}],"outputs":[{"name":"prizePool","type":"uint256","internalType":"uint256"},{"name":"operationsFund","type":"uint256","internalType":"uint256"},{"name":"platformFee","type":"uint256","internalType":"uint256"},{"name":"totalGasReimbursed","type":"uint256","internalType":"uint256"}],"stateMutability":"view"},{"type":"function","name":"getGamePlayers","inputs":[{"name":"gameId","type":"uint256","internalType":"uint256"}],"outputs":[{"name":"","type":"address[]","internalType":"address[]"}],"stateMutability":"view"},{"type":"function","name":"getGameStatus","inputs":[{"name":"gameId","type":"uint256","internalType":"uint256"}],"outputs":[{"name":"status","type":"string","internalType":"string"}],"stateMutability":"view"},{"type":"function","name":"getMinimumEntryFee","inputs":[{"name":"minPlayers","type":"uint256","internalType":"uint256"}],"outputs":[{"name":"","type":"uint256","internalType":"uint256"}],"stateMutability":"pure"},{"type":"function","name":"getPlayer","inputs":[{"name":"gameId","type":"uint256","internalType":"uint256"},{"name":"playerAddr","type":"address","internalType":"address"}],"outputs":[{"name":"squareIndex","type":"uint8","internalType":"uint8"},{"name":"startValueUSDC","type":"uint256","internalType":"uint256"},{"name":"penaltyETH","type":"uint256","internalType":"uint256"},{"name":"penaltyUSDC","type":"uint256","internalType":"uint256"},{"name":"penaltyAERO","type":"uint256","internalType":"uint256"},{"name":"penaltyCAKE","type":"uint256","internalType":"uint256"},{"name":"alive","type":"bool","internalType":"bool"},{"name":"eliminationReason","type":"string","internalType":"string"}],"stateMutability":"view"},{"type":"function","name":"getRoundEndETH","inputs":[{"name":"gameId","type":"uint256","internalType":"uint256"},{"name":"roundNumber","type":"uint256","internalType":"uint256"},{"name":"playerAddr","type":"address","internalType":"address"}],"outputs":[{"name":"","type":"uint256","internalType":"uint256"}],"stateMutability":"view"},{"type":"function","name":"getRoundStartETH","inputs":[{"name":"gameId","type":"uint256","internalType":"uint256"},{"name":"roundNumber","type":"uint256","internalType":"uint256"},{"name":"playerAddr","type":"address","internalType":"address"}],"outputs":[{"name":"","type":"uint256","internalType":"uint256"}],"stateMutability":"view"},{"type":"function","name":"getStartReward","inputs":[{"name":"gameId","type":"uint256","internalType":"uint256"}],"outputs":[{"name":"reward","type":"uint256","internalType":"uint256"},{"name":"timeRemaining","type":"uint256","internalType":"uint256"}],"stateMutability":"view"},{"type":"function","name":"getWhitelistedTokens","inputs":[],"outputs":[{"name":"","type":"address[]","internalType":"address[]"}],"stateMutability":"view"},{"type":"function","name":"isProtocolApproved","inputs":[{"name":"protocol","type":"address","internalType":"address"}],"outputs":[{"name":"","type":"bool","internalType":"bool"}],"stateMutability":"view"},{"type":"function","name":"isTokenWhitelisted","inputs":[{"name":"token","type":"address","internalType":"address"}],"outputs":[{"name":"","type":"bool","internalType":"bool"}],"stateMutability":"view"},{"type":"function","name":"markPlayerForElimination","inputs":[{"name":"gameId","type":"uint256","internalType":"uint256"},{"name":"player","type":"address","internalType":"address"},{"name":"reason","type":"string","internalType":"string"},{"name":"evidence","type":"bytes32","internalType":"bytes32"},{"name":"gasCost","type":"uint256","internalType":"uint256"}],"outputs":[],"stateMutability":"nonpayable"},{"type":"function","name":"oracle","inputs":[],"outputs":[{"name":"","type":"address","internalType":"address"}],"stateMutability":"view"},{"type":"function","name":"owner","inputs":[],"outputs":[{"name":"","type":"address","internalType":"address"}],"stateMutability":"view"},{"type":"function","name":"players","inputs":[{"name":"","type":"uint256","internalType":"uint256"},{"name":"","type":"address","internalType":"address"}],"outputs":[{"name":"wallet","type":"address","internalType":"address"},{"name":"squareIndex","type":"uint8","internalType":"uint8"},{"name":"startETH","type":"uint256","internalType":"uint256"},{"name":"startUSDC","type":"uint256","internalType":"uint256"},{"name":"startAERO","type":"uint256","internalType":"uint256"},{"name":"startCAKE","type":"uint256","internalType":"uint256"},{"name":"startValueUSDC","type":"uint256","internalType":"uint256"},{"name":"penaltyETH","type":"uint256","internalType":"uint256"},{"name":"penaltyUSDC","type":"uint256","internalType":"uint256"},{"name":"penaltyAERO","type":"uint256","internalType":"uint256"},{"name":"penaltyCAKE","type":"uint256","internalType":"uint256"},{"name":"alive","type":"bool","internalType":"bool"},{"name":"registered","type":"bool","internalType":"bool"},{"name":"markedForElimination","type":"bool","internalType":"bool"},{"name":"eliminationReason","type":"string","internalType":"string"},{"name":"registrationTime","type":"uint256","internalType":"uint256"},{"name":"eliminationRound","type":"uint256","internalType":"uint256"}],"stateMutability":"view"},{"type":"function","name":"register","inputs":[{"name":"gameId","type":"uint256","internalType":"uint256"}],"outputs":[],"stateMutability":"payable"},{"type":"function","name":"renounceOwnership","inputs":[],"outputs":[],"stateMutability":"nonpayable"},{"type":"function","name":"reportViolation","inputs":[{"name":"gameId","type":"uint256","internalType":"uint256"},{"name":"player","type":"address","internalType":"address"},{"name":"violationType","type":"uint8","internalType":"uint8"},{"name":"token","type":"address","internalType":"address"},{"name":"amount","type":"uint256","internalType":"uint256"},{"name":"txHash","type":"bytes32","internalType":"bytes32"},{"name":"gasCost","type":"uint256","internalType":"uint256"}],"outputs":[],"stateMutability":"nonpayable"},{"type":"function","name":"reporterList","inputs":[{"name":"","type":"uint256","internalType":"uint256"}],"outputs":[{"name":"","type":"address","internalType":"address"}],"stateMutability":"view"},{"type":"function","name":"roundEndETH","inputs":[{"name":"","type":"uint256","internalType":"uint256"},{"name":"","type":"uint256","internalType":"uint256"},{"name":"","type":"address","internalType":"address"}],"outputs":[{"name":"","type":"uint256","internalType":"uint256"}],"stateMutability":"view"},{"type":"function","name":"roundStartETH","inputs":[{"name":"","type":"uint256","internalType":"uint256"},{"name":"","type":"uint256","internalType":"uint256"},{"name":"","type":"address","internalType":"address"}],"outputs":[{"name":"","type":"uint256","internalType":"uint256"}],"stateMutability":"view"},{"type":"function","name":"rounds","inputs":[{"name":"","type":"uint256","internalType":"uint256"},{"name":"","type":"uint256","internalType":"uint256"}],"outputs":[{"name":"roundNumber","type":"uint256","internalType":"uint256"},{"name":"startTime","type":"uint256","internalType":"uint256"},{"name":"endTime","type":"uint256","internalType":"uint256"},{"name":"alivePlayers","type":"uint256","internalType":"uint256"},{"name":"cutoffRank","type":"uint256","internalType":"uint256"},{"name":"finalized","type":"bool","internalType":"bool"}],"stateMutability":"view"},{"type":"function","name":"setOracle","inputs":[{"name":"newOracle","type":"address","internalType":"address"}],"outputs":[],"stateMutability":"nonpayable"},{"type":"function","name":"setProtocolApproval","inputs":[{"name":"protocol","type":"address","internalType":"address"},{"name":"approved","type":"bool","internalType":"bool"}],"outputs":[],"stateMutability":"nonpayable"},{"type":"function","name":"setReporterAuthorization","inputs":[{"name":"reporter","type":"address","internalType":"address"},{"name":"authorized","type":"bool","internalType":"bool"}],"outputs":[],"stateMutability":"nonpayable"},{"type":"function","name":"setTokenWhitelist","inputs":[{"name":"token","type":"address","internalType":"address"},{"name":"approved","type":"bool","internalType":"bool"}],"outputs":[],"stateMutability":"nonpayable"},{"type":"function","name":"squareToPlayer","inputs":[{"name":"","type":"uint256","internalType":"uint256"},{"name":"","type":"uint8","internalType":"uint8"}],"outputs":[{"name":"","type":"address","internalType":"address"}],"stateMutability":"view"},{"type":"function","name":"startGame","inputs":[{"name":"gameId","type":"uint256","internalType":"uint256"}],"outputs":[],"stateMutability":"payable"},{"type":"function","name":"transferOwnership","inputs":[{"name":"newOwner","type":"address","internalType":"address"}],"outputs":[],"stateMutability":"nonpayable"},{"type":"function","name":"whitelistedTokenList","inputs":[{"name":"","type":"uint256","internalType":"uint256"}],"outputs":[{"name":"","type":"address","internalType":"address"}],"stateMutability":"view"},{"type":"function","name":"whitelistedTokens","inputs":[{"name":"","type":"address","internalType":"address"}],"outputs":[{"name":"","type":"bool","internalType":"bool"}],"stateMutability":"view"},{"type":"function","name":"withdrawCancelledGameFunds","inputs":[{"name":"gameId","type":"uint256","internalType":"uint256"}],"outputs":[],"stateMutability":"nonpayable"},{"type":"function","name":"withdrawOperationsSurplus","inputs":[{"name":"gameId","type":"uint256","internalType":"uint256"}],"outputs":[],"stateMutability":"nonpayable"},{"type":"function","name":"withdrawPlatformFees","inputs":[{"name":"gameId","type":"uint256","internalType":"uint256"}],"outputs":[],"stateMutability":"nonpayable"},{"type":"event","name":"CancelledGameProfitsWithdrawn","inputs":[{"name":"gameId","type":"uint256","indexed":true,"internalType":"uint256"},{"name":"amount","type":"uint256","indexed":false,"internalType":"uint256"}],"anonymous":false},{"type":"event","name":"DebugElimination","inputs":[{"name":"gameId","type":"uint256","indexed":true,"internalType":"uint256"},{"name":"roundNumber","type":"uint256","indexed":false,"internalType":"uint256"},{"name":"cutoffRank","type":"uint256","indexed":false,"internalType":"uint256"},{"name":"aliveCount","type":"uint256","indexed":false,"internalType":"uint256"},{"name":"eliminationLoopIterations","type":"uint256","indexed":false,"internalType":"uint256"}],"anonymous":false},{"type":"event","name":"DebugPlayerScore","inputs":[{"name":"gameId","type":"uint256","indexed":true,"internalType":"uint256"},{"name":"roundNumber","type":"uint256","indexed":false,"internalType":"uint256"},{"name":"player","type":"address","indexed":true,"internalType":"address"},{"name":"score","type":"int256","indexed":false,"internalType":"int256"},{"name":"rank","type":"uint256","indexed":false,"internalType":"uint256"}],"anonymous":false},{"type":"event","name":"FinalizationRewardPaid","inputs":[{"name":"gameId","type":"uint256","indexed":true,"internalType":"uint256"},{"name":"roundNumber","type":"uint256","indexed":true,"internalType":"uint256"},{"name":"finalizer","type":"address","indexed":true,"internalType":"address"},{"name":"rewardAmount","type":"uint256","indexed":false,"internalType":"uint256"}],"anonymous":false},{"type":"event","name":"GameCancelled","inputs":[{"name":"gameId","type":"uint256","indexed":true,"internalType":"uint256"},{"name":"refundAmount","type":"uint256","indexed":false,"internalType":"uint256"},{"name":"canceler","type":"address","indexed":true,"internalType":"address"},{"name":"reward","type":"uint256","indexed":false,"internalType":"uint256"}],"anonymous":false},{"type":"event","name":"GameCreated","inputs":[{"name":"gameId","type":"uint256","indexed":true,"internalType":"uint256"},{"name":"entryFee","type":"uint256","indexed":false,"internalType":"uint256"},{"name":"registrationDeadline","type":"uint256","indexed":false,"internalType":"uint256"},{"name":"minPlayers","type":"uint256","indexed":false,"internalType":"uint256"}],"anonymous":false},{"type":"event","name":"GameFinalized","inputs":[{"name":"gameId","type":"uint256","indexed":true,"internalType":"uint256"},{"name":"winner","type":"address","indexed":false,"internalType":"address"},{"name":"prizeAmount","type":"uint256","indexed":false,"internalType":"uint256"}],"anonymous":false},{"type":"event","name":"GasReimbursed","inputs":[{"name":"gameId","type":"uint256","indexed":true,"internalType":"uint256"},{"name":"oracle","type":"address","indexed":true,"internalType":"address"},{"name":"amount","type":"uint256","indexed":false,"internalType":"uint256"}],"anonymous":false},{"type":"event","name":"OperationsFundAdded","inputs":[{"name":"gameId","type":"uint256","indexed":true,"internalType":"uint256"},{"name":"amount","type":"uint256","indexed":false,"internalType":"uint256"}],"anonymous":false},{"type":"event","name":"OperationsSurplusWithdrawn","inputs":[{"name":"gameId","type":"uint256","indexed":true,"internalType":"uint256"},{"name":"amount","type":"uint256","indexed":false,"internalType":"uint256"}],"anonymous":false},{"type":"event","name":"OracleUpdated","inputs":[{"name":"newOracle","type":"address","indexed":false,"internalType":"address"}],"anonymous":false},{"type":"event","name":"OwnershipTransferred","inputs":[{"name":"previousOwner","type":"address","indexed":true,"internalType":"address"},{"name":"newOwner","type":"address","indexed":true,"internalType":"address"}],"anonymous":false},{"type":"event","name":"PenaltyApplied","inputs":[{"name":"gameId","type":"uint256","indexed":true,"internalType":"uint256"},{"name":"player","type":"address","indexed":true,"internalType":"address"},{"name":"token","type":"address","indexed":false,"internalType":"address"},{"name":"amount","type":"uint256","indexed":false,"internalType":"uint256"},{"name":"txHash","type":"bytes32","indexed":false,"internalType":"bytes32"}],"anonymous":false},{"type":"event","name":"PlatformFeesWithdrawn","inputs":[{"name":"gameId","type":"uint256","indexed":true,"internalType":"uint256"},{"name":"amount","type":"uint256","indexed":false,"internalType":"uint256"}],"anonymous":false},{"type":"event","name":"PlayerEliminated","inputs":[{"name":"gameId","type":"uint256","indexed":true,"internalType":"uint256"},{"name":"player","type":"address","indexed":true,"internalType":"address"},{"name":"reason","type":"string","indexed":false,"internalType":"string"},{"name":"evidence","type":"bytes32","indexed":false,"internalType":"bytes32"}],"anonymous":false},{"type":"event","name":"PlayerMarkedForElimination","inputs":[{"name":"gameId","type":"uint256","indexed":true,"internalType":"uint256"},{"name":"player","type":"address","indexed":true,"internalType":"address"},{"name":"reason","type":"string","indexed":false,"internalType":"string"},{"name":"evidence","type":"bytes32","indexed":false,"internalType":"bytes32"}],"anonymous":false},{"type":"event","name":"PlayerRegistered","inputs":[{"name":"gameId","type":"uint256","indexed":true,"internalType":"uint256"},{"name":"player","type":"address","indexed":true,"internalType":"address"},{"name":"squareIndex","type":"uint8","indexed":false,"internalType":"uint8"},{"name":"startValueUSDC","type":"uint256","indexed":false,"internalType":"uint256"}],"anonymous":false},{"type":"event","name":"PrizePaid","inputs":[{"name":"gameId","type":"uint256","indexed":true,"internalType":"uint256"},{"name":"winner","type":"address","indexed":true,"internalType":"address"},{"name":"place","type":"uint8","indexed":false,"internalType":"uint8"},{"name":"amount","type":"uint256","indexed":false,"internalType":"uint256"}],"anonymous":false},{"type":"event","name":"ProtocolWhitelisted","inputs":[{"name":"protocol","type":"address","indexed":true,"internalType":"address"},{"name":"approved","type":"bool","indexed":false,"internalType":"bool"}],"anonymous":false},{"type":"event","name":"ReporterUpdated","inputs":[{"name":"reporter","type":"address","indexed":true,"internalType":"address"},{"name":"authorized","type":"bool","indexed":false,"internalType":"bool"}],"anonymous":false},{"type":"event","name":"RoundEndSnapshotTaken","inputs":[{"name":"gameId","type":"uint256","indexed":true,"internalType":"uint256"},{"name":"roundNumber","type":"uint256","indexed":false,"internalType":"uint256"},{"name":"player","type":"address","indexed":true,"internalType":"address"},{"name":"ethBalance","type":"uint256","indexed":false,"internalType":"uint256"}],"anonymous":false},{"type":"event","name":"RoundFinalized","inputs":[{"name":"gameId","type":"uint256","indexed":true,"internalType":"uint256"},{"name":"roundNumber","type":"uint256","indexed":false,"internalType":"uint256"},{"name":"survivors","type":"uint256","indexed":false,"internalType":"uint256"}],"anonymous":false},{"type":"event","name":"RoundSnapshotTaken","inputs":[{"name":"gameId","type":"uint256","indexed":true,"internalType":"uint256"},{"name":"roundNumber","type":"uint256","indexed":false,"internalType":"uint256"},{"name":"player","type":"address","indexed":true,"internalType":"address"},{"name":"ethBalance","type":"uint256","indexed":false,"internalType":"uint256"}],"anonymous":false},{"type":"event","name":"RoundStarted","inputs":[{"name":"gameId","type":"uint256","indexed":true,"internalType":"uint256"},{"name":"playerCount","type":"uint256","indexed":false,"internalType":"uint256"},{"name":"startTime","type":"uint256","indexed":false,"internalType":"uint256"},{"name":"starter","type":"address","indexed":false,"internalType":"address"},{"name":"reward","type":"uint256","indexed":false,"internalType":"uint256"}],"anonymous":false},{"type":"event","name":"TokenWhitelisted","inputs":[{"name":"token","type":"address","indexed":true,"internalType":"address"},{"name":"approved","type":"bool","indexed":false,"internalType":"bool"}],"anonymous":false},{"type":"event","name":"ViolationReported","inputs":[{"name":"gameId","type":"uint256","indexed":true,"internalType":"uint256"},{"name":"player","type":"address","indexed":true,"internalType":"address"},{"name":"violationType","type":"uint8","indexed":false,"internalType":"uint8"},{"name":"token","type":"address","indexed":false,"internalType":"address"},{"name":"amount","type":"uint256","indexed":false,"internalType":"uint256"},{"name":"txHash","type":"bytes32","indexed":false,"internalType":"bytes32"}],"anonymous":false},{"type":"error","name":"OwnableInvalidOwner","inputs":[{"name":"owner","type":"address","internalType":"address"}]},{"type":"error","name":"OwnableUnauthorizedAccount","inputs":[{"name":"account","type":"address","internalType":"address"}]},{"type":"error","name":"ReentrancyGuardReentrantCall","inputs":[]}],"bytecode":{"object":"0x6080604090808252346200054c5733156200053757505f8054336001600160a01b03198083168217845592916001600160a01b03167f8be0079c531659141344cd1fd0a4f28419497f9722a3daafe3b4186f6b6457e08380a36001807f9b779b17422d0df92223018b32b4d1fa46e071723d6817e2486d003becc55f0055338360075416176007553382526020600581528483209260ff19938385825416179055600654926801000000000000000093848110156200052357818101806006558110156200050f576006835283832001338782541617905573cf77a3ba9a5ca399b7c97c74d54e5b1beb874e439485835281845287832095865496838360ff998a811615620004d5575b5050505050732626664c2603336e57b271c5c0b26f421741e481808452828552888420838382548a8116156200049b575b50505050507394cc0aac535ccdb3c01d6787d6413c739ae12bc4808452828552888420838382548a81161562000461575b505050505073678aa4bf4e210cf2166753e054d5b7c31cc7fa86808452828552888420838382548a81161562000427575b5050505050828052600384528783208282825489811615620003c8575b5050505073420000000000000000000000000000000000000680845260038552888420838382548a8116156200038e575b505050505073036cbd53842c5426634e7929541ec2318f3dcf7e80845260038552888420838382548a81161562000354575b505050505073940181a94a35a4569e4529a3cdfb74e38fd9863180845260038552888420838382548a811615620002f2575b5050505050733055913c90fcc1a6ce9a358911721eeb942013a19586845260038552888420918254918216156200028f575b8951615a439081620005518239f35b168217905560045493841015620002de57830180600455831015620002ca57600481522001918254161790555f808080808080808062000280565b634e487b7160e01b81526032600452602490fd5b634e487b7160e01b82526041600452602482fd5b16179055600454868110156200034057838101806004558110156200032c57600485528585200190888254161790555f808383826200024e565b634e487b7160e01b85526032600452602485fd5b634e487b7160e01b85526041600452602485fd5b16179055600454868110156200034057838101806004558110156200032c57600485528585200190888254161790555f808383826200021c565b16179055600454868110156200034057838101806004558110156200032c57600485528585200190888254161790555f80838382620001ea565b1617905560045485811015620004135782810180600455811015620003ff5760048452848420018781541690555f828282620001b9565b634e487b7160e01b84526032600452602484fd5b634e487b7160e01b84526041600452602484fd5b16179055600254868110156200034057838101806002558110156200032c57600285528585200190888254161790555f808383826200019c565b16179055600254868110156200034057838101806002558110156200032c57600285528585200190888254161790555f808383826200016b565b16179055600254868110156200034057838101806002558110156200032c57600285528585200190888254161790555f808383826200013a565b16179055600254868110156200034057838101806002558110156200032c57600285528585200190888254161790555f8083838262000109565b634e487b7160e01b83526032600452602483fd5b634e487b7160e01b83526041600452602483fd5b631e4fbdf760e01b81525f6004820152602490fd5b5f80fdfe60a0604052600436101561001a575b3615610018575f80fd5b005b5f3560e01c806302e13b3a14613f24578063039388e51461185857806306bc058714613eda578063071bf18814613eb95780630a3846f514613dbf5780630e8e812714613da35780630f1bf45414613d70578063117a5b9014613c52578063125050bf14613c3657806312e65164146138e157806314ac410f14613c0d57806315a40f4914613b9f5780631691bd6f14613b7157806316b98555146139025780632b005a10146118eb5780632daa75e2146138e657806338840848146138e15780633a41429a146138a45780634411b3eb14613889578063475f0664146138085780634ca6ef28146137da578063536a3ddc146137bd5780636454e58d14613700578063646f6eb4146136e557806367091a2e1461354457806369958ab9146130e65780636aa214161461300c5780636d9a2bac14612ed75780636f3415f414612e13578063715018a614612dbc5780637adbf97314612d085780637ce6c020146117da5780637dc0d1d014612ce05780637efed65e14612ae5578063807aa8df1461288d578063818837591461286d578063836af84214611b925780638944da7114611b6657806389a3027114611b385780638bc17f5214611b1c5780638da5cb5b14611af55780638f78a2611461192c578063900a466b146118eb5780639aacf805146118b0578063a3eca32e14611895578063a8c2267514611858578063ad5c464814611836578063b5af090f146110f4578063b5f141631461181b578063ba9a0e77146117da578063bb975f7b146105c8578063bddff749146117b1578063c0f8092114611677578063c1a287e21461165b578063c9bcc97e146114b3578063ca36b1ff14611432578063ca707e9714611408578063ca74120e146113df578063ce91e164146113c3578063d95e37eb14611131578063daf9c210146110f4578063db2e21bc1461107d578063de2571811461105f578063e26f790014610fd2578063e3bbb4f114610fb3578063e570408914610f50578063e5ed1d5914610ae0578063e6da921314610a75578063ec43e22114610a54578063ecb4f35814610839578063ecc31ce7146107e4578063ed456ee41461079c578063f207564e14610678578063f2fde38b146105ee578063f50ab0de146105cd578063f5d0a350146105c85763f7fe4e890361000e57346105c45761037b366141b3565b610383614367565b6001600160a01b0382811692831561057f57835f52600560205260405f20928015159360ff1981541660ff86161790555f1461048f575f809285600654945b85811061045b575b505050156103f0575b505060205f805160206159ee833981519152915b604051908152a2005b9091600160401b831015610447576104416020926104228560015f805160206159ee833981519152970160065561407e565b90919082549060031b9160018060a01b03809116831b921b1916179055565b916103d3565b634e487b7160e01b5f52604160045260245ffd5b81836104668361407e565b90549060031b1c16146104815761047c9061442e565b6103c2565b5050505060015f85816103ca565b505f5b6006805480831015610565578390866104aa8561407e565b939054600394851b1c16146104ca575050506104c59061442e565b610492565b5f1995929492939192818701918211610551576104f9936104ed6104229361407e565b9054911b1c169161407e565b815491821561053d575f805160206159ee8339815191529360209301906105376105228361407e565b81549060018060a01b039060031b1b19169055565b556103e7565b634e487b7160e01b5f52603160045260245ffd5b634e487b7160e01b5f52601160045260245ffd5b5050505060205f805160206159ee833981519152916103e7565b60405162461bcd60e51b815260206004820152601860248201527f496e76616c6964207265706f72746572206164647265737300000000000000006044820152606490fd5b5f80fd5b614213565b346105c4575f3660031901126105c457602060405166071afd498d00008152f35b346105c45760203660031901126105c457610607613ff4565b61060f614367565b6001600160a01b03908116908115610660575f54826bffffffffffffffffffffffff60a01b8216175f55167f8be0079c531659141344cd1fd0a4f28419497f9722a3daafe3b4186f6b6457e05f80a3005b604051631e4fbdf760e01b81525f6004820152602490fd5b60203660031901126105c45760043561068f6149e1565b805f5260096020526106aa60ff600860405f200154166144d8565b805f52600960205260405f20906106c5600183015415614516565b600a820154421161075757610700906106f960ff600860098601956106ed87543410156143e9565b015460101c1615614559565b339061460a565b5480341161072f575b60017f9b779b17422d0df92223018b32b4d1fa46e071723d6817e2486d003becc55f0055005b5f8080806107406107519534614449565b335af161074b614456565b50614495565b80610709565b60405162461bcd60e51b815260206004820152601c60248201527f526567697374726174696f6e20646561646c696e6520706173736564000000006044820152606490fd5b346105c4576107aa36614351565b905f52600f60205260405f2080548210156105c4576020916107cb91614131565b905460405160039290921b1c6001600160a01b03168152f35b346105c45760203660031901126105c4576004355f908152600960209081526040918290206007810154600c820154600d830154600e90930154855192835293820152928301526060820152608090f35b0390f35b346105c4576020806003193601126105c45760043561085781614392565b90600281116108c95750610835604051610870816142f7565b603081527f3220706c6179657273207265717569726573202435206d696e696d756d20746f848201526f20636f7665722067617320636f73747360801b60408201525b6040805194859485528401526040830190614020565b6004811161092d57506108356040516108e1816142f7565b603581527f332d3420706c61796572732072657175697265732024332e3330206d696e696d8482015274756d20746f20636f7665722067617320636f73747360581b60408201526108b3565b600e811161098f5750610835604051610945816142f7565b603381527f352d313420706c6179657273207265717569726573202431206d696e696d756d848201527220746f20636f7665722067617320636f73747360681b60408201526108b3565b6013106109f9576108356040516109a5816142f7565b603781527f31352d313920706c61796572732072657175697265732024302e3833206d696e848201527f696d756d20746f20636f7665722067617320636f73747300000000000000000060408201526108b3565b610835604051610a08816142f7565b603581527f32302b20706c61796572732072657175697265732024302e3530206d696e696d8482015274756d20746f20636f7665722067617320636f73747360581b60408201526108b3565b346105c4576020610a6d610a6736614351565b90614b54565b604051908152f35b346105c457610a8336614351565b905f52600a60205260405f20905f5260205260c060405f20805490600181015490600281015460038201549060ff6005600485015494015416936040519586526020860152604085015260608401526080830152151560a0820152f35b60203660031901126105c4576004355f526009602052610b0960ff600860405f200154166144d8565b6004355f52600960205260405f20610b25600182015415614516565b600a8101544210610f0b57610b4460ff600883015460101c1615614559565b6004355f52600b60205260405f20335f5260205260ff600a60405f20015460081c16155f14610ee7576009810180543410610e9257610b8960646006840154106145d2565b610b953360043561460a565b54803411610e7b575b505b6006810154600b82015411610e3c57426001820155600160038201556004355f52600a60205260405f2060015f5260205260405f2060018155426001820155610bed60058301544261443c565b60028201556004610c076006840154806003850155614b25565b9101556004355f52600f60205260405f20905f5b8254811015610cf35780610c32610c6d9285614131565b60018060a01b0391549060031b1c166004355f52600b60205260405f20815f5260205260405f2060ff600a82015416610c72575b505061442e565b610c1b565b6006015481319080821115610ceb57610c8a91614449565b6004355f52600d60205260405f2060015f5260205260405f20825f526020528060405f2055604051906001825260208201527fbf4c21326566652c9a962fb1fbc75ecee7ebce248d3dcba8a4a21f35905f41be604060043592a38480610c66565b50505f610c8a565b505f61012c610d06600a84015442614449565b1080610e28575b610d5c575b60016006830154920154604051928352602083015233604083015260608201527f90484f768a0888d4a8a1e4e224441f504d49ed53be624d5ed6c2f86ee97e15da608060043592a2005b50600c8101805490600f8202828104600f1483151715610551576064900460098401546003810290808204600314901517156105515780821015610e205750915b8215158381610e15575b5015610e0c5782610db791614449565b90555f80808084335af1610dc9614456565b50610d125760405162461bcd60e51b815260206004820152601660248201527514995dd85c99081d1c985b9cd9995c8819985a5b195960521b6044820152606490fd5b5050505f610d12565b905081101585610da7565b905091610d9d565b505f546001600160a01b0316331415610d0d565b60405162461bcd60e51b8152602060048201526017602482015276135a5b9a5b5d5b481c1b185e595c9cc81b9bdd081b595d604a1b6044820152606490fd5b5f808080610740610e8c9534614449565b81610b9e565b60405162461bcd60e51b815260206004820152602760248201527f496e73756666696369656e7420656e7472792066656520666f722072656769736044820152663a3930ba34b7b760c91b6064820152608490fd5b3415610ba057610f065f80808034335af1610f00614456565b50614596565b610ba0565b60405162461bcd60e51b815260206004820152601d60248201527f526567697374726174696f6e20706572696f64206e6f7420656e6465640000006044820152606490fd5b346105c45760203660031901126105c4576004355f5260096020526020610a6d60405f20610f8760ff600883015460101c1661592d565b610f9560018201541561596e565b6007610faa600d830154600c8401549061443c565b9101549061443c565b346105c4575f3660031901126105c457602060405164174876e8008152f35b346105c4575f3660031901126105c457604051806004549182815260208091019260045f527f8a35acfbc15ff81a39ae7d344fd709f28e8600b4aa8c65c6b64bfe7fe36bd19b915f905b82821061103f57610835856110338189038261432f565b60405191829182614146565b83546001600160a01b03168652948501946001938401939091019061101c565b346105c45760203660031901126105c4576020610a6d600435614392565b346105c4575f3660031901126105c457611095614367565b4780156110c2575f8054610018928291829182916001600160a01b03165af16110bc614456565b506158ed565b60405162461bcd60e51b815260206004820152600a6024820152694e6f2062616c616e636560b01b6044820152606490fd5b346105c45760203660031901126105c4576001600160a01b03611115613ff4565b165f526003602052602060ff60405f2054166040519015158152f35b346105c45760403660031901126105c45761114a61400a565b6004355f908152600b602090815260408083206001600160a01b0385168085529083529220909231919073036cbd53842c5426634e7929541ec2318f3dcf7e84813b156113ba57602491604051928380926370a0823160e01b82528760048301525afa5f918161138b575b5061138557505f925b73940181a94a35a4569e4529a3cdfb74e38fd9863185813b1561137c57602491604051928380926370a0823160e01b82528860048301525afa5f918161134d575b5061134757505f945b733055913c90fcc1a6ce9a358911721eeb942013a193843b156113395781906024604051809781936370a0823160e01b835260048301525afa5f9181611307575b50610835945061130157505f905b6006830154808211156112f85761126d91614449565b935b6007830154808211156112ef5761128591614449565b945b600883015490818111156112e4576009916112a191614449565b925b0154808211156112db576112b691614449565b905b604051948594859094939260609260808301968352602083015260408201520152565b50505f906112b8565b505060095f926112a3565b50505f94611287565b50505f9361126f565b90611257565b90915084813d8311611332575b61131e818361432f565b810103126105c45761083593519087611249565b503d611314565b505061083592505f90611257565b94611208565b9091508681813d8311611375575b611365818361432f565b810103126105c4575190876111ff565b503d61135b565b50505f94611208565b926111be565b9091508581813d83116113b3575b6113a3818361432f565b810103126105c4575190866111b5565b503d611399565b50505f926111be565b346105c4575f3660031901126105c45760206040516103e88152f35b346105c45760203660031901126105c4576004356002548110156105c4576107cb6020916140c7565b346105c45760203660031901126105c45760406114266004356156c4565b82519182526020820152f35b346105c4575f3660031901126105c457604051806002549182815260208091019260025f527f405787fa12a823e0f2b7631cc41b3ba8828b3321ca811111fa75cd3aa3bb5ace915f905b82821061149357610835856110338189038261432f565b83546001600160a01b03168652948501946001938401939091019061147c565b346105c4576114c1366141b3565b906114ca614367565b811561155f576001600160a01b0381165f908152600360205260409020805460ff81161561151c575b505060205f805160206159ae833981519152915b60405193151584526001600160a01b031692a2005b60ff19166001179055600454600160401b81101561044757816115595f805160206159ae83398151915293610422846001602096016004556140fc565b916114f3565b60018060a01b0380821690815f5260038060205260405f20805460ff811661159d575b505050505060205f805160206159ae83398151915291611507565b60ff19169055919290915f5b6004548082101561163f5785856115bf846140fc565b905490861b1c16146115da57506115d59061442e565b6115a9565b9091929394505f199485820191821161055157611609936115fd610422936140fc565b9054911b1c16916140fc565b60045490811561053d575f805160206159ae8339815191529260209201611632610522826140fc565b6004555b91848080611582565b5050505f805160206159ae833981519152925060209150611636565b346105c4575f3660031901126105c4576020604051610e108152f35b346105c45760403660031901126105c45761169061400a565b6004355f52600b60205260405f2090600160a01b60019003165f5260205260405f208054600182015491600281015460038201546004830154600584015460068501546007860154600887015491600988015493600a89015495604051978880600b8d01906116fe91614266565b03611709908a61432f565b600c8b01549a600d0154996040519d8e809e600160a01b600190038116825260a01c60ff1660208201526040015260608d015260808c015260a08b015260c08a015260e089015261010088015261012087015261014086015260ff811615156101608601528060081c60ff16151561018086015260101c60ff1615156101a0850152610220806101c086015284016117a091614020565b916101e08401526102008301520390f35b346105c45760203660031901126105c4576004356004548110156105c4576107cb6020916140fc565b346105c4576117e836614189565b915f52600d60205260405f20905f5260205260405f209060018060a01b03165f52602052602060405f2054604051908152f35b346105c4575f3660031901126105c457602060405160968152f35b346105c4575f3660031901126105c4576040516006602160991b018152602090f35b346105c45760203660031901126105c4576001600160a01b03611879613ff4565b165f526001602052602060ff60405f2054166040519015158152f35b346105c4575f3660031901126105c457602060405160058152f35b346105c45760203660031901126105c4576118cc600435615438565b9061083560405192839215158352604060208401526040830190614020565b346105c4576118f936614189565b915f52600e60205260405f20905f5260205260405f209060018060a01b03165f52602052602060405f2054604051908152f35b346105c45760e03660031901126105c45760043561194861400a565b906001600160a01b036044358181168082036105c4577f209e8f16a085cd3c54fde1b3f60a567b885f90d8a537093e13549710a4811109926064359160c43591806007541633148015611add575b61199f90614a23565b865f5260096020526119ba60ff600860405f200154166144d8565b865f52600b60205260405f20971696875f5260205260405f20916119f260ff600a8501546119ec828260081c16614a7f565b16614ac3565b80611acd575b5080611a3b5750600601611a0d82825461443c565b90555b604080516001600160a01b039093168352602083019190915260a4359082015280606081015b0390a3005b73036cbd53842c5426634e7929541ec2318f3dcf7e8103611a6c5750600701611a6582825461443c565b9055611a10565b73940181a94a35a4569e4529a3cdfb74e38fd986318103611a965750600801611a6582825461443c565b733055913c90fcc1a6ce9a358911721eeb942013a114611ab7575b50611a10565b600901611ac582825461443c565b905585611ab1565b611ad79087614c89565b876119f8565b50335f9081526005602052604090205460ff16611996565b346105c4575f3660031901126105c4575f546040516001600160a01b039091168152602090f35b346105c4575f3660031901126105c4576020604051611b588152f35b346105c4575f3660031901126105c457602060405173036cbd53842c5426634e7929541ec2318f3dcf7e8152f35b346105c45760203660031901126105c4576040611b84600435615797565b825191825215156020820152f35b346105c45760603660031901126105c457611bab6149e1565b6004355f526009602052611bc860ff600860405f200154166144d8565b64174876e8003a11612833575a6004355f52600960205260405f20600a60205260405f206024355f5260205260405f209060ff6005830154166127ee57600282015442106127b7576004355f52600f60205260405f20925f5b8454811015611cfa5780611c38611c729287614131565b60018060a01b0391549060031b1c166004355f52600b60205260405f20815f5260205260405f2060ff600a82015416611c7757505061442e565b611c21565b6006015481319080821115611cf257611c8f91614449565b6004355f52600e60205260405f206024355f5260205260405f20825f526020528060405f205560405190602435825260208201527f7a6dc8668b900cef79b7c85336b2aa8533125272071b266829858f8a8877f934604060043592a38680610c66565b50505f611c8f565b50826004355f52600f60205260405f205f935f5b8254811015611e12576004355f52600b60205260405f20611d2f8285614131565b905460018060a01b039160031b1c165f5260205260405f20600a81015460ff811680611e05575b611d6b575b5050611d669061442e565b611d0e565b611d66929197611d9b9160ff1916600a8a0155602435600d8a015560038701611d948154614d9e565b905561442e565b96611da68286614131565b60018060a01b0391549060031b1c16907f1109200899f9b44fee78f968fad81da002ef9a1c60b658214dd929836fcc3f94611def6040519260408452600b604085019101614266565b915f602082015280600435930390a39087611d5b565b5060ff8160101c16611d56565b509290845f808354905b818110612758575081612274575b5050505060038201541561222f5760058201805460ff19166001179055611e52905a90614449565b615208810180911161055157803a8102043a14811517156105515760963a8202023a820281046096143a8302151715610551576064900490600c84015480600f810204600f1481151715610551576064600f820204808411612227575b50655af3107a400080841061221f575b508281101561215b575b50505060443580151580612147575b612135575b50600381015460405160243581528160208201527f50175b23949579f5a257c33ccacf5689f481c882821df6a2a9294c7b5c67fc55604060043592a2600483015460243510908161212a575b50156120e35760038201611f3d815461442e565b8082556004355f52600a60205260405f20815f5260205260405f20908155611f706005600183019542875501544261443c565b60028201556004611f8a6003850154806003850155614b25565b910155546004355f52600f60205260405f20925f5b84548110156120745780611fb6611ff09287614131565b60018060a01b0391549060031b1c166004355f52600b60205260405f20815f5260205260405f2060ff600a82015416611ff557505061442e565b611f9f565b600601548131908082111561206c5761200d91614449565b6004355f52600d60205260405f20865f5260205260405f20825f526020528060405f20556040519086825260208201527fbf4c21326566652c9a962fb1fbc75ecee7ebce248d3dcba8a4a21f35905f41be604060043592a38680610c66565b50505f61200d565b5092505060030154905460405191825260208201525f60408201525f60608201527f90484f768a0888d4a8a1e4e224441f504d49ed53be624d5ed6c2f86ee97e15da608060043592a260017f9b779b17422d0df92223018b32b4d1fa46e071723d6817e2486d003becc55f0055005b50506004355f52600960205260405f2060088101610100815461210c60ff8260081c1615614df2565b61ffff1916179055600242910155612125600435614e37565b610709565b600191501183611f29565b61214190600435614c89565b82611edd565b506007546001600160a01b03163314611ed8565b8261216591614449565b600c85015561217b600f8501913a02825461443c565b90555f80808084335af161218d614456565b50156121cf576040519081523390602435907fdf0c04832a4eb2c2a392b9a3db905466189a5443eb97cab0ed36dae640ebac09602060043592a4828080611ec9565b60405162461bcd60e51b815260206004820152602260248201527f46696e616c697a6174696f6e20726577617264207061796d656e74206661696c604482015261195960f21b6064820152608490fd5b925085611ebf565b925085611eaf565b60405162461bcd60e51b815260206004820152601c60248201527f43616e6e6f7420656c696d696e61746520616c6c20706c6179657273000000006044820152606490fd5b61227f829492614daa565b9161228d604051938461432f565b848352601f1961229c86614daa565b015f5b8181106127295750505f905f915b8383106125e3575050505060015b8381106124d457505f5b83811061246057506004850154925f9184935b82851061232e5750506040805160243581526020810195909552840152606083015250600435907fdfe3c2de175be6983dcde4e4de8add73d7cfb15912caa78534e533d63bfcbcfe90608090a283808080611e2a565b90919261233d6124369161442e565b946123da6001600160a01b036123538387614dc2565b515116936004355f52600b8060205260405f20865f5260205260405f2090600a820160ff198154169055602435600d8301556123918183015461422e565b601f9081811161243f575b50507f42656c6f77206375746f66662072616e6b00000000000000000000000000002291015560038b01546123d090614d9e565b60038c015561442e565b9260405160408152601160408201527042656c6f77206375746f66662072616e6b60781b60608201525f60208201527f1109200899f9b44fee78f968fad81da002ef9a1c60b658214dd929836fcc3f94608060043592a361442e565b939291906122d8565b612459918385015f5260205f20910160051c810190614b0f565b8e8061239c565b9092906124cc906001600160a01b036124798287614dc2565b51511660206124888388614dc2565b51015160405190602435825260208201528260408201527f307ba9460fb89e907af04c8be8818d284473491a727f8140724e470a96b13137606060043592a361442e565b9290926122c5565b936124e485839793989498614dc2565b5196855f19810113600116610551575f1986015b5f8112158061257c575b1561254457612530612514828a614dc2565b5161251e83614dd6565b90612529828c614dc2565b5289614dc2565b50600160ff1b8114610551575f19016124f8565b612574929691949861255c61256e9299979599614dd6565b906125678289614dc2565b5286614dc2565b5061442e565b9290926122bb565b506020612589828a614dc2565b51015160208a01908151139081156125a2575b50612502565b905060206125b0838b614dc2565b510151905114806125c2575b8a61259c565b5060ff60406125d1838b614dc2565b5101511660ff60408b015116106125bc565b6125f08383989698614131565b60018060a01b0391549060031b1c166004355f52600b60205260405f20815f5260205260405f2060ff600a820154161561271d576004355f52600d60205260405f206024355f5260205260405f20825f5260205260405f20546004355f52600e60205260405f206024355f5260205260405f20835f5260205260405f205481155f146126c9575050916126ba916126c09360ff5f915b5460a01c169060405192612699846142f7565b8352602083015260408201526126af828b614dc2565b5261256e818a614dc2565b9261442e565b919593956122ad565b929093918484035f861285821281169086831390151617610551576127109486828781020587149114171561055157808502600160ff1b145f19871416610551576126c0956126ba9560ff92020591612686565b5050916126c09061442e565b60209060409795975161273b816142f7565b5f81525f838201525f604082015282828a0101520195939561229f565b6004355f52600b60205260405f206127708287614131565b60018060a01b0391549060031b1c165f5260205260ff600a60405f200154166127a2575b61279d9061442e565b611e1c565b916127af61279d9161442e565b929050612794565b60405162461bcd60e51b815260206004820152600f60248201526e149bdd5b99081b9bdd08195b991959608a1b6044820152606490fd5b60405162461bcd60e51b815260206004820152601760248201527f526f756e6420616c72656164792066696e616c697a65640000000000000000006044820152606490fd5b60405162461bcd60e51b815260206004820152601260248201527108ec2e640e0e4d2c6ca40e8dede40d0d2ced60731b6044820152606490fd5b346105c4575f3660031901126105c457602060405165886c98b760008152f35b346105c45760e03660031901126105c4576004356128a961400a565b9060443560ff81168091036105c4576001600160a01b0360643581811692918382036105c4576084359260a4359060c43592806007541633148015612acd575b6128f290614a23565b875f52600960205261290d60ff600860405f200154166144d8565b875f52600b60205260405f20981697885f5260205260405f209561293f60ff600a8901546119ec828260081c16614a7f565b60028211612a8f577f4f187953241f4f28a953796eb28b4d36c621e2af87363b267e2295a961a7821c60808a938a937f209e8f16a085cd3c54fde1b3f60a567b885f90d8a537093e13549710a48111099a88611a3699612a7f575b50816129ee576006016129ae8b825461443c565b90555b6040519182526020820152886040820152856060820152a360405193849384604091949392606082019560018060a01b0316825260208201520152565b73036cbd53842c5426634e7929541ec2318f3dcf7e8203612a1e57600701612a178b825461443c565b90556129b1565b73940181a94a35a4569e4529a3cdfb74e38fd986318203612a4757600801612a178b825461443c565b733055913c90fcc1a6ce9a358911721eeb942013a18214612a69575b506129b1565b600901612a778b825461443c565b90558d612a63565b612a899087614c89565b8e61299a565b60405162461bcd60e51b8152602060048201526016602482015275496e76616c69642076696f6c6174696f6e207479706560501b6044820152606490fd5b50335f9081526005602052604090205460ff166128e9565b60a03660031901126105c457604435608435600281101580612cd5575b15612c9057612b1081614392565b8210612c415766071afd498d00008211612bfc5781612b336020933410156143e9565b7f80b55cf2f646df8d85b80ac067c88c4aa6354a860d6cb55c7e234cf23861627f6060612b6160085461442e565b9283600855835f526009865260405f209384556004356004850155602435600585015560088401600160ff1982541617905580600985015584600b612ba86064354261443c565b95600a81019687550155612bbf600854339061460a565b803411612be6575b60085494859454604051928352878301526040820152a2604051908152f35b612bf75f8080806107408634614449565b612bc7565b60405162461bcd60e51b815260206004820152601960248201527f456e747279206665652065786365656473206d6178696d756d000000000000006044820152606490fd5b60405162461bcd60e51b815260206004820152602160248201527f456e7472792066656520746f6f206c6f7720666f72206d696e20706c617965726044820152607360f81b6064820152608490fd5b60405162461bcd60e51b815260206004820152601760248201527f6d696e506c6179657273206f7574206f662072616e67650000000000000000006044820152606490fd5b506064811115612b02565b346105c4575f3660031901126105c4576007546040516001600160a01b039091168152602090f35b346105c45760203660031901126105c457612d21613ff4565b612d29614367565b6001600160a01b03168015612d7e576020817f3df77beb5db05fcdd70a30fc8adf3f83f9501b68579455adbd100b8180940394926bffffffffffffffffffffffff60a01b6007541617600755604051908152a1005b60405162461bcd60e51b8152602060048201526016602482015275496e76616c6964206f7261636c65206164647265737360501b6044820152606490fd5b346105c4575f3660031901126105c457612dd4614367565b5f80546001600160a01b0319811682556001600160a01b03167f8be0079c531659141344cd1fd0a4f28419497f9722a3daafe3b4186f6b6457e08280a3005b60203660031901126105c457600435612e2a614367565b80151580612ecb575b15612e9457805f526009602052600c60405f20612e5a60ff600883015460081c1615614df2565b01612e6634825461443c565b90557f89107e89f6a7df0afbef2b49b227bcfe3d305acfbeeb8b43631e71e024f6f7966020604051348152a2005b60405162461bcd60e51b815260206004820152600f60248201526e125b9d985b1a590819d85b59481251608a1b6044820152606490fd5b50600854811115612e33565b346105c45760603660031901126105c45767ffffffffffffffff6004356024358281116105c457612f0c9036906004016141e2565b90926044359081116105c457612f269036906004016141e2565b93909160018060a01b03806007541633148015612ff4575b612f4790614a23565b858203612fb7575f5b828110612f5957005b855f52602090600b825260405f20612f72828688614a6f565b35928484168094036105c457612fb2935f525260405f20612f9c60ff600a83015460081c16614a7f565b6005612fa9838b8a614a6f565b3591015561442e565b612f50565b60405162461bcd60e51b8152602060048201526015602482015274082e4e4c2f240d8cadccee8d040dad2e6dac2e8c6d605b1b6044820152606490fd5b50335f9081526005602052604090205460ff16612f3e565b346105c45760203660031901126105c457600435613028614367565b805f526009602052600d60405f20613053600882015460ff8160081c169081156130d8575b506158b0565b0180549081156130a0577ff175fe4c4704cc2f1e905cb3469231d686baf5c0f07e11aabdc7ee9396882f2c915f602092556103e75f8080808560018060a01b038254165af16110bc614456565b60405162461bcd60e51b815260206004820152601060248201526f4e6f20706c6174666f726d206665657360801b6044820152606490fd5b60ff915060101c168561304d565b346105c45760203660031901126105c4576004355f52600960205261311460ff600860405f200154166144d8565b6004355f52600960205260405f20613130600182015415614516565b600a810154610e108101809111610551574210613506576006810154600b82015411156134c15760088101805460ff8160101c166134835762ff00ff191662010000179055600c810180545f91811580156133b1575b50505060098201546103e890818102918183041481151715610551576127106131b0920490614449565b5f805b6004355f52600f60205260405f20805483101561324757826131d491614131565b60018060a01b0391549060031b1c16916004355f52600b60205260405f20835f526020528360ff600a60405f20015460081c1661321e575b5061321891925061442e565b906131b3565b5f8080808461323361323e966132189961443c565b985af1610f00614456565b8291508361320c565b8482876007810154801515806133a4575b613296575b8284604051918252602082015233907f9a3c9f3a45bfcb8b694695d9f46d47be3bb358ef9b4dc95cacb0c67c361609af604060043592a3005b6006820154918215613390575f5b6004355f52600f60205260405f20805482101561337c57816132c591614131565b60018060a01b0391549060031b1c166004355f52600b60205260405f20815f5260205260ff600a60405f20015460081c1661330a575b506133059061442e565b6132a4565b945f808061331c81948989049061443c565b98888804905af161332b614456565b501561333757866132fb565b60405162461bcd60e51b815260206004820152601860248201527f5072697a6520706f6f6c20726566756e64206661696c656400000000000000006044820152606490fd5b50505f60079190910155508390508061325d565b634e487b7160e01b5f52601260045260245ffd5b5060068201541515613258565b90919250600583029083820460051417156105515766038d7ea4c680009060649004818111156134635750915b80831161345b575b828015613186576133f691614449565b90555f80808084335af1613408614456565b501561341657828082613186565b60405162461bcd60e51b815260206004820152601c60248201527f43616e63656c20726577617264207061796d656e74206661696c6564000000006044820152606490fd5b9150816133e6565b655af3107a400091508181101561347b5750916133de565b9050916133de565b60405162461bcd60e51b815260206004820152601660248201527511d85b5948185b1c9958591e4818d85b98d95b1b195960521b6044820152606490fd5b60405162461bcd60e51b815260206004820152601760248201527f47616d652068617320656e6f75676820706c61796572730000000000000000006044820152606490fd5b60405162461bcd60e51b815260206004820152601660248201527511dc9858d9481c195c9a5bd9081b9bdd08195b99195960521b6044820152606490fd5b346105c457613552366141b3565b9061355b614367565b81156135ef576001600160a01b0381165f908152600160205260409020805460ff8116156135ac575b505060205f805160206159ce8339815191529160405193151584526001600160a01b031692a2005b60ff19166001179055600254600160401b81101561044757816135e95f805160206159ce83398151915293610422846001602096016002556140c7565b91613584565b60018060a01b0380821690815f526001918260205260405f20805460ff811661362e575b505050505060205f805160206159ce83398151915291611507565b60ff191690555f835b613642575b80613613565b60028054808310156136de5784908461365a856140c7565b939054600394851b1c161461367b575050506136759061442e565b83613637565b5f19979296509194909350868201918211610551576136ac936136a0610422936140c7565b9054911b1c16916140c7565b815491821561053d575f805160206159ce8339815191529360209301906136d5610522836140c7565b5591848061363c565b505061363c565b346105c4575f3660031901126105c457602060405160038152f35b346105c45760403660031901126105c45761371961400a565b6004355f52600b60205260405f209060018060a01b03165f5260205260ff60405f20610835600b8254926005810154600682015460078301546008840154916009850154936137808a600a8801541696613779604051809a819301614266565b038861432f565b604051998a9960a01c168952602089015260408801526060870152608086015260a0850152151560c08401526101008060e0850152830190614020565b346105c4575f3660031901126105c4576020600854604051908152f35b346105c4575f3660031901126105c4576020604051733055913c90fcc1a6ce9a358911721eeb942013a18152f35b346105c4575f3660031901126105c457604051806006549182815260208091019260065f527ff652222313e28459528d920b65115c16c04f3efc82aaedc97be59f3f377c0d3f915f905b82821061386957610835856110338189038261432f565b83546001600160a01b031686529485019460019384019390910190613852565b346105c4575f3660031901126105c457602060405160648152f35b346105c45760203660031901126105c4576001600160a01b036138c5613ff4565b165f526005602052602060ff60405f2054166040519015158152f35b61405e565b346105c4575f3660031901126105c45760206040516152088152f35b346105c45760a03660031901126105c45760043561391e61400a565b67ffffffffffffffff916044358381116105c457366023820112156105c45780600401359384116105c457602490368286830101116105c4576007546001600160a01b039590600b9060843590881633148015613b59575b61397f90614a23565b855f526020976009895261399c60ff600860405f200154166144d8565b865f5282895260405f20971696875f52885260405f2090600a8201906139c560ff835416614ac3565b80613b49575b506201000062ff000019825416179055016139e6815461422e565b601f8111613b10575b505f601f8311600114613a835796829160609493867f4a9ee5fc87a29ae083114857a859de174aaf3a28f40804fb58c1228a204c82f798999a5f92613a76575b50508360011b905f198560031b1c19161790555b816040519586946040865282604087015201858501375f83830185015260643590830152601f01601f19168101030190a3005b860101359050868b613a2f565b601f19831690825f52885f20915f5b818110613af7575091849391606096957f4a9ee5fc87a29ae083114857a859de174aaf3a28f40804fb58c1228a204c82f7999a9b9410613adc575b5050600183811b019055613a43565b85018701355f19600386901b60f8161c191690558980613acd565b91928a600181928a878b01013581550194019201613a92565b613b3990825f52885f20601f850160051c8101918a8610613b3f575b601f0160051c0190614b0f565b876139ef565b9091508190613b2c565b613b539088614c89565b896139cb565b50335f9081526005602052604090205460ff16613976565b346105c4575f3660031901126105c457602060405173940181a94a35a4569e4529a3cdfb74e38fd986318152f35b346105c4576020806003193601126105c4576004355f52600f815260405f209060405190818184549182815201935f52815f20915f905b828210613bed57610835856110338189038261432f565b83546001600160a01b031686529485019460019384019390910190613bd6565b346105c45760203660031901126105c4576004356006548110156105c4576107cb60209161407e565b346105c4575f3660031901126105c45760206040516107d08152f35b346105c45760203660031901126105c4576004355f52600960205260405f2080549080600181015460028201546003830154600484015460058501546006860154600787015490600888015492600989015494600a8a015496600b8b015498600c8c01549a600d8d01549c600e01549d600f01549e60405180608052526080516020015260805160400152608051606001526080516080015260805160a0015260805160c0015260805160e0015260ff8116151560805161010001528060081c60ff161515608051610120015260101c60ff1615156080516101400152608051610160015260805161018001526080516101a001526080516101c001526080516101e001526080516102000152608051610220015260805161024090f35b346105c45760203660031901126105c457610835613d8f6004356155ab565b604051918291602083526020830190614020565b346105c4575f3660031901126105c457602060405161012c8152f35b346105c45760203660031901126105c457600435613ddb614367565b805f52600960205260405f20613dfa60ff600883015460101c1661592d565b613e0860018201541561596e565b600d81018054613e2e6007613e23600c86019384549061443c565b94019384549061443c565b908115613e7d577f84d9c961fa45af4fcd9f34994594295ed23b37abeba5083e6ed1c6695faff424935f8092816020965555556103e75f8080808560018060a01b038254165af16110bc614456565b60405162461bcd60e51b81526020600482015260146024820152734e6f2066756e647320746f20776974686472617760601b6044820152606490fd5b346105c4575f3660031901126105c457602060405166038d7ea4c680008152f35b346105c45760403660031901126105c45760243560ff81168091036105c4576004355f52600c60205260405f20905f52602052602060018060a01b0360405f205416604051908152f35b346105c45760203660031901126105c457600435613f40614367565b805f526009602052600c60405f20613f6a600882015460ff8160081c169081156130d857506158b0565b018054908115613fb7577f6213671b7ab64c8ac0d893456ba54d8a2b4935c784ae62b98b5c349e603aa3bb915f602092556103e75f8080808560018060a01b038254165af16110bc614456565b60405162461bcd60e51b81526020600482015260156024820152744e6f206f7065726174696f6e7320737572706c757360581b6044820152606490fd5b600435906001600160a01b03821682036105c457565b602435906001600160a01b03821682036105c457565b91908251928382525f5b84811061404a575050825f602080949584010152601f8019910116010190565b60208183018101518483018201520161402a565b346105c4575f3660031901126105c4576020604051655af3107a40008152f35b6006548110156140b35760065f527ff652222313e28459528d920b65115c16c04f3efc82aaedc97be59f3f377c0d3f01905f90565b634e487b7160e01b5f52603260045260245ffd5b6002548110156140b35760025f527f405787fa12a823e0f2b7631cc41b3ba8828b3321ca811111fa75cd3aa3bb5ace01905f90565b6004548110156140b35760045f527f8a35acfbc15ff81a39ae7d344fd709f28e8600b4aa8c65c6b64bfe7fe36bd19b01905f90565b80548210156140b3575f5260205f2001905f90565b602090816040818301928281528551809452019301915f5b82811061416c575050505090565b83516001600160a01b03168552938101939281019260010161415e565b60609060031901126105c45760043590602435906044356001600160a01b03811681036105c45790565b60409060031901126105c4576004356001600160a01b03811681036105c4579060243580151581036105c45790565b9181601f840112156105c45782359167ffffffffffffffff83116105c4576020808501948460051b0101116105c457565b346105c4575f3660031901126105c4576020604051600f8152f35b90600182811c9216801561425c575b602083101461424857565b634e487b7160e01b5f52602260045260245ffd5b91607f169161423d565b905f92918054916142768361422e565b9182825260019384811690815f146142d45750600114614297575b50505050565b90919394505f52602092835f2092845f945b8386106142c057505050500101905f808080614291565b8054858701830152940193859082016142a9565b9294505050602093945060ff191683830152151560051b0101905f808080614291565b6060810190811067ffffffffffffffff82111761044757604052565b6040810190811067ffffffffffffffff82111761044757604052565b90601f8019910116810190811067ffffffffffffffff82111761044757604052565b60409060031901126105c4576004359060243590565b5f546001600160a01b0316330361437a57565b60405163118cdaa760e01b8152336004820152602490fd5b600281116143a657506605543df729c00090565b600481116143ba575066038d7ea4c6800090565b600e81116143ce5750660110d9316ec00090565b6013106143df5765e35fa931a00090565b65886c98b7600090565b156143f057565b60405162461bcd60e51b8152602060048201526016602482015275496e73756666696369656e7420656e7472792066656560501b6044820152606490fd5b5f1981146105515760010190565b9190820180921161055157565b9190820391821161055157565b3d15614490573d9067ffffffffffffffff82116104475760405191614485601f8201601f19166020018461432f565b82523d5f602084013e565b606090565b1561449c57565b60405162461bcd60e51b8152602060048201526014602482015273115e18d95cdcc81c99599d5b990819985a5b195960621b6044820152606490fd5b156144df57565b60405162461bcd60e51b815260206004820152600f60248201526e47616d65206e6f742061637469766560881b6044820152606490fd5b1561451d57565b60405162461bcd60e51b815260206004820152601460248201527311d85b5948185b1c9958591e481cdd185c9d195960621b6044820152606490fd5b1561456057565b60405162461bcd60e51b815260206004820152600e60248201526d11d85b594818d85b98d95b1b195960921b6044820152606490fd5b1561459d57565b60405162461bcd60e51b815260206004820152600d60248201526c1499599d5b990819985a5b1959609a1b6044820152606490fd5b156145d957565b60405162461bcd60e51b815260206004820152600960248201526811d85b5948199d5b1b60ba1b6044820152606490fd5b91905f928084526020916009835260409081862095600b85528281209460018060a01b03831695868352815260ff600a858420015460081c166149a9576006880180549361465a606486106145d2565b868452600b8352858420888552835285842080546001600160a81b031916891760a087901b60ff60a01b161781558131600182015560ff959095169473036cbd53842c5426634e7929541ec2318f3dcf7e803b1561499d57848a60248a51809481936370a0823160e01b835260048301525afa86918161496e575b5061496457508460028201555b73940181a94a35a4569e4529a3cdfb74e38fd98631803b1561495857848a60248a51809481936370a0823160e01b835260048301525afa869181614929575b5061491f57508460038201555b733055913c90fcc1a6ce9a358911721eeb942013a1803b1561491357848a60248a51809481936370a0823160e01b835260048301525afa8691816148e0575b506148d657508460048201555b600a8101805461ffff191661010117905542600c918201558785528352858420858552835285842080546001600160a01b03191689179055868452600f8352858420805490600160401b8210156148c257816104229160016147df9594018155614131565b6147e9815461442e565b9055600988015497611b5890818a028a15928b8204148317156148ae57612710809104926107d090818d02918d830414171561489a5791836148617f303fb32c8a490b60bc05d759a94d464cfc0cceae07dbb546f8d130b367c1a9b59a9b9c9d61485c600d9561488d9704938492614449565b614449565b946148716007840191825461443c565b9055614882600c830191825461443c565b90550191825461443c565b90558351928352820152a3565b634e487b7160e01b86526011600452602486fd5b634e487b7160e01b85526011600452602485fd5b634e487b7160e01b86526041600452602486fd5b600482015561477a565b9091508581813d831161490c575b6148f8818361432f565b810103126149085751905f61476d565b8680fd5b503d6148ee565b5084600482015561477a565b600382015561472e565b9091508581813d8311614951575b614941818361432f565b810103126149085751905f614721565b503d614937565b5084600382015561472e565b60028201556146e2565b9091508581813d8311614996575b614986818361432f565b810103126149085751905f6146d5565b503d61497c565b508460028201556146e2565b60649084519062461bcd60e51b825260048201526012602482015271105b1c9958591e481c9959da5cdd195c995960721b6044820152fd5b7f9b779b17422d0df92223018b32b4d1fa46e071723d6817e2486d003becc55f006002815414614a115760029055565b604051633ee5aeb560e01b8152600490fd5b15614a2a57565b60405162461bcd60e51b815260206004820152601760248201527f4e6f7420617574686f72697a6564207265706f727465720000000000000000006044820152606490fd5b91908110156140b35760051b0190565b15614a8657565b60405162461bcd60e51b8152602060048201526015602482015274141b185e595c881b9bdd081c9959da5cdd195c9959605a1b6044820152606490fd5b15614aca57565b60405162461bcd60e51b815260206004820152601960248201527f506c6179657220616c726561647920656c696d696e61746564000000000000006044820152606490fd5b818110614b1a575050565b5f8155600101614b0f565b6001811115614b4e5760438102908082046043149015171561055157606490048015614b4e5790565b50600190565b5f90815260096020526040812091600a602052604082209082526020526040812060ff600582015416614c8357600201544210614c2157600882015460ff811615908115614c74575b8115614c66575b50614c21573a64174876e800808211614c5e575b5062030d40908082029182048103614c36576301c9c380029080820460961490151715614c4a576064600c9104920154600f8102818104600f1482151715614c365760649004808411614c2e575b50655af3107a4000808410614c26575b508211614c21575090565b905090565b92505f614c16565b92505f614c06565b634e487b7160e01b83526011600452602483fd5b634e487b7160e01b82526011600452602482fd5b90505f614bb8565b60ff915060101c165f614ba4565b905060ff8160081c1690614b9d565b50905090565b5f818152600960205260408120600c810190815491858310614d5957614cb186600e94614449565b905501614cbf84825461443c565b905560018060a01b03908080808685600754165af1614cdc614456565b5015614d145760207f08f2f9c7c190644b682ac90756570b87fbd347f1c2ab6b655f843327ca4f5bb4916007541693604051908152a3565b60405162461bcd60e51b815260206004820152601860248201527f476173207265696d62757273656d656e74206661696c656400000000000000006044820152606490fd5b60405162461bcd60e51b815260206004820152601c60248201527f496e73756666696369656e74206f7065726174696f6e732066756e64000000006044820152606490fd5b8015610551575f190190565b67ffffffffffffffff81116104475760051b60200190565b80518210156140b35760209160051b010190565b9060018201915f60018412911290801582169115161761055157565b15614df957565b60405162461bcd60e51b815260206004820152601660248201527511d85b5948185b1c9958591e48199a5b985b1a5e995960521b6044820152606490fd5b805f52600960205260405f2060078101549081156152a757600381015490614e5e846152ac565b9082156152a1575f858152600f602052604081208054908290815b8381106151cd57505050505b5f90846151b9575b6001600160a01b039482861615806151af575b61518e575b50603c8602868104603c0361055157606490049286601e810204601e036105515786600a810204600a036105515760075f91015584811615615176575b8482161561515e575b8385161515928380615155575b6150be575b508481161515806150af575b615011575b50838116151580615002575b614f64575b50614f2a5750505050565b7f74c933f1ef06ea1a136628fdaebfdefe261decc439e340a4d8091801861f70b0926040928351921682526020820152a25f808080614291565b6064600a860204905f80808085855af1614f7c614456565b5015614fbd577f1f64005671e6ea77bf6258d0c9963d829e600cc7bfd9b08c45ce9a0d51af9dac60408689938251956003875260208701521693a35f614f1f565b60405162461bcd60e51b815260206004820152601b60248201527f5072697a65207472616e73666572206661696c656420283372642900000000006044820152606490fd5b506064600a8602041515614f1a565b6064601e870204905f80808085855af1615029614456565b501561506a577f1f64005671e6ea77bf6258d0c9963d829e600cc7bfd9b08c45ce9a0d51af9dac6040878a938251956002875260208701521693a35f614f0e565b60405162461bcd60e51b815260206004820152601b60248201527f5072697a65207472616e73666572206661696c65642028326e642900000000006044820152606490fd5b506064601e8702041515614f09565b5f80808084895af16150ce614456565b50156151105760405190600182526020820152877f1f64005671e6ea77bf6258d0c9963d829e600cc7bfd9b08c45ce9a0d51af9dac604088881693a35f614efd565b60405162461bcd60e51b815260206004820152601b60248201527f5072697a65207472616e73666572206661696c656420283173742900000000006044820152606490fd5b50801515614ef8565b91615170906064600a8802049061443c565b91614eeb565b91615188906064601e8802049061443c565b91614ee2565b9091505f1981019081116105515781846151a89289615338565b905f614ea5565b5060018111614ea0565b90506151c781848689615338565b90614e8d565b6151d78183614131565b90546001600160a01b0360039290921b1c811690881681148015615299575b615228578a5f52600b60205260405f20815f5260205260405f208960ff600a8301541615918261528b575b5050615237575b506152329061442e565b614e79565b8a5f52600e60205260405f20895f5260205260405f20815f5260205260405f20549060018060a01b038716158015615282575b615275575b50615228565b955092506152325f61526f565b5084821161526a565b600d0154149050895f615221565b5080156151f6565b5f614e85565b505050565b5f908082526020600f815260408084209084938254945b8581106152d35750505050505090565b818752600b85528287206152e78286614131565b9054600391821b1c6001600160a01b039081168a52918752848920600a015460ff1661531d5750506153189061442e565b6152c3565b965096509291505061532f9250614131565b9054911b1c1690565b929190925f92818452602093600f8552604090818120958197829583988054995b8a811061536e57505050505050505050505090565b8b6153798284614131565b90546001600160a01b0360039290921b1c8116908c81168214801561542d575b6153c757858952600b8852898920828a5288528989208760ff600a8301541615918261541f575b50506153d8575b5050506153d39061442e565b615359565b858952600e8852898920878a528852898920828a528852898920549216158015615416575b615409575b8d916153c7565b9c5098506153d35f615402565b508a82116153fd565b600d0154149050875f6153c0565b50808b168214615399565b905f918252602060098152604092838120600881015460ff81161561557f5760101c60ff1661555557600181015461552557600a81015442106154ec57600b6006820154910154116154ba5760019380519283019083821067ffffffffffffffff8311176154a65752815290565b634e487b7160e01b83526041600452602483fd5b76135a5b9a5b5d5b481c1b185e595c9cc81b9bdd081b595d604a1b909351916154e283614313565b6017835282015290565b507f526567697374726174696f6e20706572696f64206e6f7420656e6465640000009093519161551b83614313565b601d835282015290565b507311d85b5948185b1c9958591e481cdd185c9d195960621b9093519161554b83614313565b6014835282015290565b506d11d85b594818d85b98d95b1b195960921b9093519161557583614313565b600e835282015290565b50506e47616d65206e6f742061637469766560881b909351916155a183614313565b600f835282015290565b5f526020600981526040805f20600881015460ff8160101c166156a95760081c60ff1661568557600181015461566657600a8101544210156156135750702922a3a4a9aa2920aa24a7a72fa7a822a760791b90519161560983614313565b6011835282015290565b6006810154600b9091015411615641576d149150511657d513d7d4d510549560921b90519161557583614313565b6a155391115491925313115160aa1b90519161565c83614313565b600b835282015290565b50634c49564560e01b90519161567b83614313565b6004835282015290565b506811925390531256915160ba1b90519161569f83614313565b6009835282015290565b50506810d05390d15313115160ba1b90519161569f83614313565b905f91825260096020526040822091600183015415801590615786575b61578057600a830154804210615779576156fb9042614449565b9061012c938483101561577157600c810154600f810290808204600f1490151715614c3657606460099104910154600381029080820460031490151715614c3657808210156157695750915b840393841161575557509190565b634e487b7160e01b81526011600452602490fd5b905091615747565b509250508190565b5091508190565b91508190565b5060ff600884015460101c166156e1565b5f905f908082526009602052604082209080159081156158a4575b508015615895575b61586b57600181015415801590615884575b8015615872575b61586b57600a810154610e108101809111614c3657421061586b57600c0154908115908115615806575b50505090600190565b9091925060058302918383046005141715615755575066038d7ea4c6800090606490048181111561584b5750905b808211615843575b80806157fd565b90505f61583c565b655af3107a4000915081811015615863575090615834565b905090615834565b5091829150565b506006810154600b82015411156157d3565b5060ff600882015460101c166157cc565b5060ff600882015416156157ba565b9050600854105f6157b2565b156158b757565b60405162461bcd60e51b815260206004820152600e60248201526d11d85b59481b9bdd08195b99195960921b6044820152606490fd5b156158f457565b60405162461bcd60e51b815260206004820152601160248201527015da5d1a191c985dd85b0819985a5b1959607a1b6044820152606490fd5b1561593457565b60405162461bcd60e51b815260206004820152601260248201527111d85b59481b9bdd0818d85b98d95b1b195960721b6044820152606490fd5b1561597557565b60405162461bcd60e51b815260206004820152601060248201526f11d85b59481dd85cc81cdd185c9d195960821b6044820152606490fdfeef81a9943b96c8df4ef243401c9bf5159146166211356898b52d382086168d9260d00706f06f6d09b5d1016c03123544f47b263dbf449d0a2713b17adad054533852f36d292dc71d9e7d1a5a7612b2cf3d10b1772f1909c3bf23aac036db7e18a2646970667358221220435eb0f6eb5fe42f7797974286192ca55bb75d46aeeb9dd268a81ec55a597bc664736f6c63430008140033","linkReferences":{}},"methodIdentifiers":{"AERO()":"1691bd6f","BASE_TRANSACTION_COST()":"2daa75e2","CAKE()":"4ca6ef28","CANCEL_REWARD_PCT()":"a3eca32e","FINALIZATION_REWARD_MULTIPLIER()":"b5f14163","GRACE_PERIOD()":"c1a287e2","MAX_CANCEL_REWARD()":"071bf188","MAX_ENTRY_FEE()":"f50ab0de","MAX_FINALIZATION_REWARD_PCT()":"f5d0a350","MAX_GAS_PRICE()":"e3bbb4f1","MAX_PLAYERS()":"4411b3eb","MAX_REWARD_MULTIPLIER()":"646f6eb4","MIN_CANCEL_REWARD()":"38840848","MIN_ENTRY_FEE()":"81883759","MIN_FINALIZATION_REWARD()":"12e65164","OPERATIONS_BPS()":"125050bf","PLATFORM_BPS()":"ce91e164","PRIZE_POOL_BPS()":"8bc17f52","REWARD_WINDOW()":"0e8e8127","START_REWARD_PCT()":"bb975f7b","USDC()":"89a30271","WETH()":"ad5c4648","addOperationsFund(uint256)":"6f3415f4","applyPenalty(uint256,address,address,uint256,uint256,bytes32,uint256)":"8f78a261","approvedProtocolList(uint256)":"ca74120e","approvedProtocols(address)":"a8c22675","authorizedReporters(address)":"3a41429a","canGameStart(uint256)":"9aacf805","cancelGame(uint256)":"69958ab9","commitStartingValues(uint256,address[],uint256[])":"6d9a2bac","createGame(uint256,uint256,uint256,uint256,uint256)":"7efed65e","currentGameId()":"536a3ddc","emergencyWithdraw()":"db2e21bc","finalizeRound(uint256,uint256,uint256)":"836af842","gamePlayerList(uint256,uint256)":"ed456ee4","games(uint256)":"117a5b90","getAdjustedBalances(uint256,address)":"d95e37eb","getApprovedProtocols()":"ca36b1ff","getAuthorizedReporters()":"475f0664","getCancelReward(uint256)":"8944da71","getCancelledGameProfits(uint256)":"e5704089","getEntryFeeRequirement(uint256)":"ecb4f358","getFinalizationReward(uint256,uint256)":"ec43e221","getGameFinancials(uint256)":"ecc31ce7","getGamePlayers(uint256)":"15a40f49","getGameStatus(uint256)":"0f1bf454","getMinimumEntryFee(uint256)":"de257181","getPlayer(uint256,address)":"6454e58d","getRoundEndETH(uint256,uint256,address)":"2b005a10","getRoundStartETH(uint256,uint256,address)":"ba9a0e77","getStartReward(uint256)":"ca707e97","getWhitelistedTokens()":"e26f7900","isProtocolApproved(address)":"039388e5","isTokenWhitelisted(address)":"b5af090f","markPlayerForElimination(uint256,address,string,bytes32,uint256)":"16b98555","oracle()":"7dc0d1d0","owner()":"8da5cb5b","players(uint256,address)":"c0f80921","register(uint256)":"f207564e","renounceOwnership()":"715018a6","reportViolation(uint256,address,uint8,address,uint256,bytes32,uint256)":"807aa8df","reporterList(uint256)":"14ac410f","roundEndETH(uint256,uint256,address)":"900a466b","roundStartETH(uint256,uint256,address)":"7ce6c020","rounds(uint256,uint256)":"e6da9213","setOracle(address)":"7adbf973","setProtocolApproval(address,bool)":"67091a2e","setReporterAuthorization(address,bool)":"f7fe4e89","setTokenWhitelist(address,bool)":"c9bcc97e","squareToPlayer(uint256,uint8)":"06bc0587","startGame(uint256)":"e5ed1d59","transferOwnership(address)":"f2fde38b","whitelistedTokenList(uint256)":"bddff749","whitelistedTokens(address)":"daf9c210","withdrawCancelledGameFunds(uint256)":"0a3846f5","withdrawOperationsSurplus(uint256)":"02e13b3a","withdrawPlatformFees(uint256)":"6aa21416"},"id":37}