{"abi":[{"type":"constructor","inputs":[],"stateMutability":"nonpayable"},{"type":"receive","stateMutability":"payable"},{"type":"function","name":"AERO","inputs":[],"outputs":[{"name":"","type":"address","internalType":"address"}],"stateMutability":"view"},{"type":"function","name":"CAKE","inputs":[],"outputs":[{"name":"","type":"address","internalType":"address"}],"stateMutability":"view"},{"type":"function","name":"GRACE_PERIOD","inputs":[],"outputs":[{"name":"","type":"uint256","internalType":"uint256"}],"stateMutability":"view"},{"type":"function","name":"MAX_ENTRY_FEE","inputs":[],"outputs":[{"name":"","type":"uint256","internalType":"uint256"}],"stateMutability":"view"},{"type":"function","name":"MAX_PLAYERS","inputs":[],"outputs":[{"name":"","type":"uint256","internalType":"uint256"}],"stateMutability":"view"},{"type":"function","name":"MAX_REWARD_MULTIPLIER","inputs":[],"outputs":[{"name":"","type":"uint256","internalType":"uint256"}],"stateMutability":"view"},{"type":"function","name":"MIN_ENTRY_FEE","inputs":[],"outputs":[{"name":"","type":"uint256","internalType":"uint256"}],"stateMutability":"view"},{"type":"function","name":"OPERATIONS_BPS","inputs":[],"outputs":[{"name":"","type":"uint256","internalType":"uint256"}],"stateMutability":"view"},{"type":"function","name":"PLATFORM_BPS","inputs":[],"outputs":[{"name":"","type":"uint256","internalType":"uint256"}],"stateMutability":"view"},{"type":"function","name":"PRIZE_POOL_BPS","inputs":[],"outputs":[{"name":"","type":"uint256","internalType":"uint256"}],"stateMutability":"view"},{"type":"function","name":"REWARD_WINDOW","inputs":[],"outputs":[{"name":"","type":"uint256","internalType":"uint256"}],"stateMutability":"view"},{"type":"function","name":"START_REWARD_PCT","inputs":[],"outputs":[{"name":"","type":"uint256","internalType":"uint256"}],"stateMutability":"view"},{"type":"function","name":"USDC","inputs":[],"outputs":[{"name":"","type":"address","internalType":"address"}],"stateMutability":"view"},{"type":"function","name":"WETH","inputs":[],"outputs":[{"name":"","type":"address","internalType":"address"}],"stateMutability":"view"},{"type":"function","name":"applyPenalty","inputs":[{"name":"gameId","type":"uint256","internalType":"uint256"},{"name":"player","type":"address","internalType":"address"},{"name":"token","type":"address","internalType":"address"},{"name":"amount","type":"uint256","internalType":"uint256"},{"name":"amountUSDC","type":"uint256","internalType":"uint256"},{"name":"txHash","type":"bytes32","internalType":"bytes32"},{"name":"gasCost","type":"uint256","internalType":"uint256"}],"outputs":[],"stateMutability":"nonpayable"},{"type":"function","name":"approvedProtocols","inputs":[{"name":"","type":"address","internalType":"address"}],"outputs":[{"name":"","type":"bool","internalType":"bool"}],"stateMutability":"view"},{"type":"function","name":"canGameStart","inputs":[{"name":"gameId","type":"uint256","internalType":"uint256"}],"outputs":[{"name":"canStart","type":"bool","internalType":"bool"},{"name":"reason","type":"string","internalType":"string"}],"stateMutability":"view"},{"type":"function","name":"cancelGame","inputs":[{"name":"gameId","type":"uint256","internalType":"uint256"}],"outputs":[],"stateMutability":"nonpayable"},{"type":"function","name":"commitStartingValues","inputs":[{"name":"gameId","type":"uint256","internalType":"uint256"},{"name":"playerAddresses","type":"address[]","internalType":"address[]"},{"name":"valuesUSDC","type":"uint256[]","internalType":"uint256[]"}],"outputs":[],"stateMutability":"nonpayable"},{"type":"function","name":"createGame","inputs":[{"name":"totalRounds","type":"uint256","internalType":"uint256"},{"name":"roundDuration","type":"uint256","internalType":"uint256"},{"name":"entryFee","type":"uint256","internalType":"uint256"},{"name":"registrationPeriod","type":"uint256","internalType":"uint256"},{"name":"minPlayers","type":"uint256","internalType":"uint256"}],"outputs":[{"name":"","type":"uint256","internalType":"uint256"}],"stateMutability":"nonpayable"},{"type":"function","name":"currentGameId","inputs":[],"outputs":[{"name":"","type":"uint256","internalType":"uint256"}],"stateMutability":"view"},{"type":"function","name":"eliminatePlayer","inputs":[{"name":"gameId","type":"uint256","internalType":"uint256"},{"name":"player","type":"address","internalType":"address"},{"name":"reason","type":"string","internalType":"string"},{"name":"evidence","type":"bytes32","internalType":"bytes32"},{"name":"gasCost","type":"uint256","internalType":"uint256"}],"outputs":[],"stateMutability":"nonpayable"},{"type":"function","name":"emergencyWithdraw","inputs":[],"outputs":[],"stateMutability":"nonpayable"},{"type":"function","name":"finalizeRound","inputs":[{"name":"gameId","type":"uint256","internalType":"uint256"},{"name":"roundNumber","type":"uint256","internalType":"uint256"},{"name":"eliminatedPlayers","type":"address[]","internalType":"address[]"},{"name":"gasCost","type":"uint256","internalType":"uint256"}],"outputs":[],"stateMutability":"nonpayable"},{"type":"function","name":"gamePlayerList","inputs":[{"name":"","type":"uint256","internalType":"uint256"},{"name":"","type":"uint256","internalType":"uint256"}],"outputs":[{"name":"","type":"address","internalType":"address"}],"stateMutability":"view"},{"type":"function","name":"games","inputs":[{"name":"","type":"uint256","internalType":"uint256"}],"outputs":[{"name":"gameId","type":"uint256","internalType":"uint256"},{"name":"startTime","type":"uint256","internalType":"uint256"},{"name":"endTime","type":"uint256","internalType":"uint256"},{"name":"currentRound","type":"uint256","internalType":"uint256"},{"name":"totalRounds","type":"uint256","internalType":"uint256"},{"name":"roundDuration","type":"uint256","internalType":"uint256"},{"name":"playerCount","type":"uint256","internalType":"uint256"},{"name":"prizePool","type":"uint256","internalType":"uint256"},{"name":"active","type":"bool","internalType":"bool"},{"name":"finalized","type":"bool","internalType":"bool"},{"name":"cancelled","type":"bool","internalType":"bool"},{"name":"entryFee","type":"uint256","internalType":"uint256"},{"name":"registrationDeadline","type":"uint256","internalType":"uint256"},{"name":"minPlayers","type":"uint256","internalType":"uint256"},{"name":"operationsFund","type":"uint256","internalType":"uint256"},{"name":"platformFee","type":"uint256","internalType":"uint256"},{"name":"totalGasReimbursed","type":"uint256","internalType":"uint256"}],"stateMutability":"view"},{"type":"function","name":"getAdjustedBalances","inputs":[{"name":"gameId","type":"uint256","internalType":"uint256"},{"name":"playerAddr","type":"address","internalType":"address"}],"outputs":[{"name":"","type":"uint256","internalType":"uint256"},{"name":"","type":"uint256","internalType":"uint256"},{"name":"","type":"uint256","internalType":"uint256"},{"name":"","type":"uint256","internalType":"uint256"}],"stateMutability":"view"},{"type":"function","name":"getGameFinancials","inputs":[{"name":"gameId","type":"uint256","internalType":"uint256"}],"outputs":[{"name":"prizePool","type":"uint256","internalType":"uint256"},{"name":"operationsFund","type":"uint256","internalType":"uint256"},{"name":"platformFee","type":"uint256","internalType":"uint256"},{"name":"totalGasReimbursed","type":"uint256","internalType":"uint256"}],"stateMutability":"view"},{"type":"function","name":"getGamePlayers","inputs":[{"name":"gameId","type":"uint256","internalType":"uint256"}],"outputs":[{"name":"","type":"address[]","internalType":"address[]"}],"stateMutability":"view"},{"type":"function","name":"getGameStatus","inputs":[{"name":"gameId","type":"uint256","internalType":"uint256"}],"outputs":[{"name":"status","type":"string","internalType":"string"}],"stateMutability":"view"},{"type":"function","name":"getPlayer","inputs":[{"name":"gameId","type":"uint256","internalType":"uint256"},{"name":"playerAddr","type":"address","internalType":"address"}],"outputs":[{"name":"squareIndex","type":"uint8","internalType":"uint8"},{"name":"startValueUSDC","type":"uint256","internalType":"uint256"},{"name":"penaltyETH","type":"uint256","internalType":"uint256"},{"name":"penaltyUSDC","type":"uint256","internalType":"uint256"},{"name":"penaltyAERO","type":"uint256","internalType":"uint256"},{"name":"penaltyCAKE","type":"uint256","internalType":"uint256"},{"name":"alive","type":"bool","internalType":"bool"},{"name":"eliminationReason","type":"string","internalType":"string"}],"stateMutability":"view"},{"type":"function","name":"getStartReward","inputs":[{"name":"gameId","type":"uint256","internalType":"uint256"}],"outputs":[{"name":"reward","type":"uint256","internalType":"uint256"},{"name":"timeRemaining","type":"uint256","internalType":"uint256"}],"stateMutability":"view"},{"type":"function","name":"oracle","inputs":[],"outputs":[{"name":"","type":"address","internalType":"address"}],"stateMutability":"view"},{"type":"function","name":"owner","inputs":[],"outputs":[{"name":"","type":"address","internalType":"address"}],"stateMutability":"view"},{"type":"function","name":"players","inputs":[{"name":"","type":"uint256","internalType":"uint256"},{"name":"","type":"address","internalType":"address"}],"outputs":[{"name":"wallet","type":"address","internalType":"address"},{"name":"squareIndex","type":"uint8","internalType":"uint8"},{"name":"startETH","type":"uint256","internalType":"uint256"},{"name":"startUSDC","type":"uint256","internalType":"uint256"},{"name":"startAERO","type":"uint256","internalType":"uint256"},{"name":"startCAKE","type":"uint256","internalType":"uint256"},{"name":"startValueUSDC","type":"uint256","internalType":"uint256"},{"name":"penaltyETH","type":"uint256","internalType":"uint256"},{"name":"penaltyUSDC","type":"uint256","internalType":"uint256"},{"name":"penaltyAERO","type":"uint256","internalType":"uint256"},{"name":"penaltyCAKE","type":"uint256","internalType":"uint256"},{"name":"alive","type":"bool","internalType":"bool"},{"name":"registered","type":"bool","internalType":"bool"},{"name":"eliminationReason","type":"string","internalType":"string"},{"name":"registrationTime","type":"uint256","internalType":"uint256"}],"stateMutability":"view"},{"type":"function","name":"register","inputs":[{"name":"gameId","type":"uint256","internalType":"uint256"}],"outputs":[],"stateMutability":"payable"},{"type":"function","name":"renounceOwnership","inputs":[],"outputs":[],"stateMutability":"nonpayable"},{"type":"function","name":"rounds","inputs":[{"name":"","type":"uint256","internalType":"uint256"},{"name":"","type":"uint256","internalType":"uint256"}],"outputs":[{"name":"roundNumber","type":"uint256","internalType":"uint256"},{"name":"startTime","type":"uint256","internalType":"uint256"},{"name":"endTime","type":"uint256","internalType":"uint256"},{"name":"alivePlayers","type":"uint256","internalType":"uint256"},{"name":"cutoffRank","type":"uint256","internalType":"uint256"},{"name":"finalized","type":"bool","internalType":"bool"}],"stateMutability":"view"},{"type":"function","name":"setOracle","inputs":[{"name":"newOracle","type":"address","internalType":"address"}],"outputs":[],"stateMutability":"nonpayable"},{"type":"function","name":"setProtocolApproval","inputs":[{"name":"protocol","type":"address","internalType":"address"},{"name":"approved","type":"bool","internalType":"bool"}],"outputs":[],"stateMutability":"nonpayable"},{"type":"function","name":"squareToPlayer","inputs":[{"name":"","type":"uint256","internalType":"uint256"},{"name":"","type":"uint8","internalType":"uint8"}],"outputs":[{"name":"","type":"address","internalType":"address"}],"stateMutability":"view"},{"type":"function","name":"startGame","inputs":[{"name":"gameId","type":"uint256","internalType":"uint256"}],"outputs":[],"stateMutability":"nonpayable"},{"type":"function","name":"transferOwnership","inputs":[{"name":"newOwner","type":"address","internalType":"address"}],"outputs":[],"stateMutability":"nonpayable"},{"type":"function","name":"withdrawOperationsSurplus","inputs":[{"name":"gameId","type":"uint256","internalType":"uint256"}],"outputs":[],"stateMutability":"nonpayable"},{"type":"function","name":"withdrawPlatformFees","inputs":[{"name":"gameId","type":"uint256","internalType":"uint256"}],"outputs":[],"stateMutability":"nonpayable"},{"type":"event","name":"GameCancelled","inputs":[{"name":"gameId","type":"uint256","indexed":true,"internalType":"uint256"},{"name":"refundAmount","type":"uint256","indexed":false,"internalType":"uint256"}],"anonymous":false},{"type":"event","name":"GameCreated","inputs":[{"name":"gameId","type":"uint256","indexed":true,"internalType":"uint256"},{"name":"entryFee","type":"uint256","indexed":false,"internalType":"uint256"},{"name":"registrationDeadline","type":"uint256","indexed":false,"internalType":"uint256"},{"name":"minPlayers","type":"uint256","indexed":false,"internalType":"uint256"}],"anonymous":false},{"type":"event","name":"GameFinalized","inputs":[{"name":"gameId","type":"uint256","indexed":true,"internalType":"uint256"},{"name":"winner","type":"address","indexed":false,"internalType":"address"},{"name":"prizeAmount","type":"uint256","indexed":false,"internalType":"uint256"}],"anonymous":false},{"type":"event","name":"GasReimbursed","inputs":[{"name":"gameId","type":"uint256","indexed":true,"internalType":"uint256"},{"name":"oracle","type":"address","indexed":true,"internalType":"address"},{"name":"amount","type":"uint256","indexed":false,"internalType":"uint256"}],"anonymous":false},{"type":"event","name":"OperationsSurplusWithdrawn","inputs":[{"name":"gameId","type":"uint256","indexed":true,"internalType":"uint256"},{"name":"amount","type":"uint256","indexed":false,"internalType":"uint256"}],"anonymous":false},{"type":"event","name":"OracleUpdated","inputs":[{"name":"newOracle","type":"address","indexed":false,"internalType":"address"}],"anonymous":false},{"type":"event","name":"OwnershipTransferred","inputs":[{"name":"previousOwner","type":"address","indexed":true,"internalType":"address"},{"name":"newOwner","type":"address","indexed":true,"internalType":"address"}],"anonymous":false},{"type":"event","name":"PenaltyApplied","inputs":[{"name":"gameId","type":"uint256","indexed":true,"internalType":"uint256"},{"name":"player","type":"address","indexed":true,"internalType":"address"},{"name":"token","type":"address","indexed":false,"internalType":"address"},{"name":"amount","type":"uint256","indexed":false,"internalType":"uint256"},{"name":"txHash","type":"bytes32","indexed":false,"internalType":"bytes32"}],"anonymous":false},{"type":"event","name":"PlatformFeesWithdrawn","inputs":[{"name":"gameId","type":"uint256","indexed":true,"internalType":"uint256"},{"name":"amount","type":"uint256","indexed":false,"internalType":"uint256"}],"anonymous":false},{"type":"event","name":"PlayerEliminated","inputs":[{"name":"gameId","type":"uint256","indexed":true,"internalType":"uint256"},{"name":"player","type":"address","indexed":true,"internalType":"address"},{"name":"reason","type":"string","indexed":false,"internalType":"string"},{"name":"evidence","type":"bytes32","indexed":false,"internalType":"bytes32"}],"anonymous":false},{"type":"event","name":"PlayerRegistered","inputs":[{"name":"gameId","type":"uint256","indexed":true,"internalType":"uint256"},{"name":"player","type":"address","indexed":true,"internalType":"address"},{"name":"squareIndex","type":"uint8","indexed":false,"internalType":"uint8"},{"name":"startValueUSDC","type":"uint256","indexed":false,"internalType":"uint256"}],"anonymous":false},{"type":"event","name":"ProtocolWhitelisted","inputs":[{"name":"protocol","type":"address","indexed":false,"internalType":"address"},{"name":"approved","type":"bool","indexed":false,"internalType":"bool"}],"anonymous":false},{"type":"event","name":"RoundFinalized","inputs":[{"name":"gameId","type":"uint256","indexed":true,"internalType":"uint256"},{"name":"roundNumber","type":"uint256","indexed":false,"internalType":"uint256"},{"name":"survivors","type":"uint256","indexed":false,"internalType":"uint256"}],"anonymous":false},{"type":"event","name":"RoundStarted","inputs":[{"name":"gameId","type":"uint256","indexed":true,"internalType":"uint256"},{"name":"playerCount","type":"uint256","indexed":false,"internalType":"uint256"},{"name":"startTime","type":"uint256","indexed":false,"internalType":"uint256"},{"name":"starter","type":"address","indexed":false,"internalType":"address"},{"name":"reward","type":"uint256","indexed":false,"internalType":"uint256"}],"anonymous":false},{"type":"error","name":"OwnableInvalidOwner","inputs":[{"name":"owner","type":"address","internalType":"address"}]},{"type":"error","name":"OwnableUnauthorizedAccount","inputs":[{"name":"account","type":"address","internalType":"address"}]},{"type":"error","name":"ReentrancyGuardReentrantCall","inputs":[]}],"bytecode":{"object":"0x60808060405234610117573315610102575f80546001600160a01b031980821633908117845560405193926001600160a01b03167f8be0079c531659141344cd1fd0a4f28419497f9722a3daafe3b4186f6b6457e08480a360017f9b779b17422d0df92223018b32b4d1fa46e071723d6817e2486d003becc55f00553390600254161760025573cf77a3ba9a5ca399b7c97c74d54e5b1beb874e4381526001602052600160408083209260ff19938385825416179055732626664c2603336e57b271c5c0b26f421741e4818152818120838582541617905573678aa4bf4e210cf2166753e054d5b7c31cc7fa868152209182541617905561328c908161011c8239f35b631e4fbdf760e01b81525f6004820152602490fd5b5f80fdfe6080604052600436101561001a575b3615610018575f80fd5b005b5f3560e01c806302e13b3a1461281757806306bc0587146127cd5780630e8e8127146127b15780630f1bf4541461277e578063117a5b9014612693578063125050bf14612677578063130663ca146123f557806315a40f49146123435780631691bd6f146123155780631a86743e14611e645780634411b3eb14611e495780634ca6ef2814611e1b578063536a3ddc14611dfe5780636454e58d14611d41578063646f6eb414611d2657806367091a2e14611ca457806369958ab914611a4d5780636aa214161461196a5780636d9a2bac14611852578063715018a6146117fb5780637adbf973146117475780637dc0d1d01461171f5780637efed65e14611537578063818837591461151757806389a30271146114e95780638bc17f52146114cd5780638da5cb5b146114a65780638f78a261146111dd5780639aacf805146111a2578063a8c2267514611165578063ad5c464814611143578063bb975f7b14611128578063c0f809211461100c578063c1a287e214610ff0578063ca707e9714610fc6578063ce91e16414610faa578063d95e37eb14610d18578063db2e21bc14610ca1578063e5ed1d5914610976578063e6da92131461090b578063ecc31ce7146108ac578063ed456ee414610864578063f207564e146102bc578063f2fde38b146102325763f50ab0de0361000e573461022e575f36600319011261022e57602060405166071afd498d00008152f35b5f80fd5b3461022e57602036600319011261022e5761024b61293b565b610253612ac8565b6001600160a01b039081169081156102a4575f54826bffffffffffffffffffffffff60a01b8216175f55167f8be0079c531659141344cd1fd0a4f28419497f9722a3daafe3b4186f6b6457e05f80a3005b604051631e4fbdf760e01b81525f6004820152602490fd5b60208060031936011261022e576004357f9b779b17422d0df92223018b32b4d1fa46e071723d6817e2486d003becc55f009060028254146108525760028255805f526004835261031560ff600860405f20015416612b0e565b805f526004835260405f209061032f600183015415612b4c565b600a820154421161080d576006820180549260648410156107dc57825f526006865260405f20335f52865260ff600a60405f20015460081c166107a2576009810191825434106107645761038d60ff600884015460101c1615612b8f565b5f84815260068852604080822033808452908a52912080546001600160a81b03191660ff60a01b1983161760a088901b60ff60a01b161781559031600182015560ff959095169473036cbd53842c5426634e7929541ec2318f3dcf7e88813b15610757576040516370a0823160e01b815233600482015291829060249082905afa5f9181610728575b5061071e57505f60028201555b73940181a94a35a4569e4529a3cdfb74e38fd9863188813b15610711576040516370a0823160e01b815233600482015291829060249082905afa5f91816106e2575b506106d857505f60038201555b733055913c90fcc1a6ce9a358911721eeb942013a188813b156106cb576040516370a0823160e01b815233600482015291829060249082905afa5f918161069c575b5061069257505f60048201555b600a8101805461ffff191661010117905542600c909101555f848152600788526040808220878352895280822080546001600160a01b0319163317905585825260088952902080546801000000000000000081101561067e5761052991600182018155612a9f565b81546001600160a01b0360039290921b91821b19163390911b179055805461055090612af3565b9055611b58803402903415903483041481171561066a57612710809204926107d0918234029234840414171561066a576105c792600d920461059b816105968734612bcc565b612bcc565b946105ab60078401918254612b01565b90556105bc600c8301918254612b01565b905501918254612b01565b905554803411610609575b505f6001946040519384528301527f303fb32c8a490b60bc05d759a94d464cfc0cceae07dbb546f8d130b367c1a9b560403393a355005b5f8080610617819434612bcc565b335af1610622612bd9565b501561062e57846105d2565b60405162461bcd60e51b8152600481018590526014602482015273115e18d95cdcc81c99599d5b990819985a5b195960621b6044820152606490fd5b634e487b7160e01b5f52601160045260245ffd5b634e487b7160e01b5f52604160045260245ffd5b60048201556104c1565b9091508981813d83116106c4575b6106b48183612a67565b8101031261022e5751908a6104b4565b503d6106aa565b50505f60048201556104c1565b6003820155610472565b9091508981813d831161070a575b6106fa8183612a67565b8101031261022e5751908a610465565b503d6106f0565b50505f6003820155610472565b6002820155610423565b9091508981813d8311610750575b6107408183612a67565b8101031261022e5751908a610416565b503d610736565b50505f6002820155610423565b60405162461bcd60e51b8152600481018890526016602482015275496e73756666696369656e7420656e7472792066656560501b6044820152606490fd5b60405162461bcd60e51b8152600481018790526012602482015271105b1c9958591e481c9959da5cdd195c995960721b6044820152606490fd5b60405162461bcd60e51b815260048101879052600960248201526811d85b5948199d5b1b60ba1b6044820152606490fd5b60405162461bcd60e51b815260048101859052601c60248201527f526567697374726174696f6e20646561646c696e6520706173736564000000006044820152606490fd5b604051633ee5aeb560e01b8152600490fd5b3461022e5761087236612a89565b905f52600860205260405f20805482101561022e5760209161089391612a9f565b905460405160039290921b1c6001600160a01b03168152f35b3461022e57602036600319011261022e576004355f52600460205260405f206007810154610907600c83015492600e600d82015491015490604051948594859094939260609260808301968352602083015260408201520152565b0390f35b3461022e5761091936612a89565b905f52600560205260405f20905f5260205260c060405f20805490600181015490600281015460038201549060ff6005600485015494015416936040519586526020860152604085015260608401526080830152151560a0820152f35b3461022e5760208060031936011261022e5760043590815f52600481526109a660ff600860405f20015416612b0e565b815f526004815260405f20600191828201926109c3845415612b4c565b600a83019283544210610c5c5760068101918254600b83015411610c1d576109f560ff600884015460101c1615612b8f565b865f526006845260405f20335f52845260ff600a60405f20015460081c168015610c0a575b15610bc557428655806003830155865f526005845260405f20815f528452600460405f20918083554281840155610a55600585015442612b01565b60028401558454908160038501551c91015561012c610a765f955442612bcc565b1080610bb1575b610ab0575b505492546040805194855291840152339083015260608201525f8051602061323783398151915290608090a2005b9250600c8301805493600f8502858104600f148615171561066a5760646009910491015460038102908082046003149015171561066a5780821015610ba95750935b8415158581610b9e575b5015610b815784610b0c91612bcc565b90555f80808086335af1610b1e612bd9565b5015610b4357915f8051602061323783398151915293916080935b9193509193610a82565b60405162461bcd60e51b815260048101839052601660248201527514995dd85c99081d1c985b9cd9995c8819985a5b195960521b6044820152606490fd5b5050608092505f8051602061323783398151915293915f91610b39565b905081101588610afc565b905093610af2565b505f546001600160a01b0316331415610a7d565b60405162461bcd60e51b815260048101859052601760248201527f4d75737420626520706c61796572206f72206f776e65720000000000000000006044820152606490fd5b505f546001600160a01b03163314610a1a565b60405162461bcd60e51b8152600481018590526017602482015276135a5b9a5b5d5b481c1b185e595c9cc81b9bdd081b595d604a1b6044820152606490fd5b60405162461bcd60e51b815260048101849052601d60248201527f526567697374726174696f6e20706572696f64206e6f7420656e6465640000006044820152606490fd5b3461022e575f36600319011261022e57610cb9612ac8565b478015610ce6575f8054610018928291829182916001600160a01b03165af1610ce0612bd9565b506131f6565b60405162461bcd60e51b815260206004820152600a6024820152694e6f2062616c616e636560b01b6044820152606490fd5b3461022e57604036600319011261022e57610d31612925565b6004355f9081526006602090815260408083206001600160a01b0385168085529083529220909231919073036cbd53842c5426634e7929541ec2318f3dcf7e84813b15610fa157602491604051928380926370a0823160e01b82528760048301525afa5f9181610f72575b50610f6c57505f925b73940181a94a35a4569e4529a3cdfb74e38fd9863185813b15610f6357602491604051928380926370a0823160e01b82528860048301525afa5f9181610f34575b50610f2e57505f945b733055913c90fcc1a6ce9a358911721eeb942013a193843b15610f205781906024604051809781936370a0823160e01b835260048301525afa5f9181610eee575b506109079450610ee857505f905b600683015480821115610edf57610e5491612bcc565b935b600783015480821115610ed657610e6c91612bcc565b945b60088301549081811115610ecb57600991610e8891612bcc565b925b015480821115610ec257610e9d91612bcc565b905b604051948594859094939260609260808301968352602083015260408201520152565b50505f90610e9f565b505060095f92610e8a565b50505f94610e6e565b50505f93610e56565b90610e3e565b90915084813d8311610f19575b610f058183612a67565b8101031261022e5761090793519087610e30565b503d610efb565b505061090792505f90610e3e565b94610def565b9091508681813d8311610f5c575b610f4c8183612a67565b8101031261022e57519087610de6565b503d610f42565b50505f94610def565b92610da5565b9091508581813d8311610f9a575b610f8a8183612a67565b8101031261022e57519086610d9c565b503d610f80565b50505f92610da5565b3461022e575f36600319011261022e5760206040516103e88152f35b3461022e57602036600319011261022e576040610fe46004356130d2565b82519182526020820152f35b3461022e575f36600319011261022e576020604051610e108152f35b3461022e57604036600319011261022e57611025612925565b6004355f52600660205260405f20600160a01b600190038092165f5260205260405f209081549160018101549060028101546003820154600483015460058401546006850154600786015491600887015493600988015495600a89015497604051998a80600b830190611097916129ba565b036110a2908c612a67565b600c01549a6040518e819f9e829f16825260a01c60ff16906020015260408d015260608c015260808b015260a08a015260c089015260e088015261010087015261012086015261014085015260ff8116151561016085015260081c60ff1615156101808401526101e0806101a0850152830161111d916128e7565b906101c08301520390f35b3461022e575f36600319011261022e576020604051600f8152f35b3461022e575f36600319011261022e576040516006602160991b018152602090f35b3461022e57602036600319011261022e576001600160a01b0361118661293b565b165f526001602052602060ff60405f2054166040519015158152f35b3461022e57602036600319011261022e576111be600435612e46565b90610907604051928392151583526040602084015260408301906128e7565b3461022e5760e036600319011261022e576004356111f9612925565b906001600160a01b036044358181169081900361022e576064359160a4359160c4359061122b83600254163314612c18565b855f526020926004845261124860ff600860405f20015416612b0e565b865f526006845260405f20971696875f52835260405f2094600a86019261128060ff855461127a828260081c16612c7f565b16612cc3565b80611496575b506005860154600a810290808204600a149015171561066a57612710900460843511156113b257505090600b7f1109200899f9b44fee78f968fad81da002ef9a1c60b658214dd929836fcc3f9494611361949360ff19815416905501916112ed8354612982565b601f8111611390575b5060578355825f526a09481d1a1c995cda1bdb1960aa1b6001835f207f556e617574686f72697a6564206465706f736974206578636565647320302e3181550155855f5260048252600360405f2001548061136a575b506040519384936040855260408501906129ba565b918301520390a3005b6005835260405f20905f528252600360405f20016113888154612d25565b90558761134c565b6113ac90845f526002601f855f20920160051c82019101612d0f565b876112f6565b909260609492507f209e8f16a085cd3c54fde1b3f60a567b885f90d8a537093e13549710a48111099584155f14611405576006016113f1838254612b01565b90555b6040519384528301526040820152a3005b73036cbd53842c5426634e7929541ec2318f3dcf7e85036114355760070161142e838254612b01565b90556113f4565b73940181a94a35a4569e4529a3cdfb74e38fd98631850361145e5760080161142e838254612b01565b733055913c90fcc1a6ce9a358911721eeb942013a18514611480575b506113f4565b60090161148e838254612b01565b90558861147a565b6114a09088612d31565b88611286565b3461022e575f36600319011261022e575f546040516001600160a01b039091168152602090f35b3461022e575f36600319011261022e576020604051611b588152f35b3461022e575f36600319011261022e57602060405173036cbd53842c5426634e7929541ec2318f3dcf7e8152f35b3461022e575f36600319011261022e57602060405165886c98b760008152f35b3461022e5760a036600319011261022e57604435608435611556612ac8565b65886c98b760008210158061170e575b156116d057660110d9316ec0008210156116b35760145b811061166f576064811161162a576020917f80b55cf2f646df8d85b80ac067c88c4aa6354a860d6cb55c7e234cf23861627f60606115bc600354612af3565b9283600355835f526004865260405f209384556004356004850155602435600585015560088401600160ff1982541617905580600985015584600b61160360643542612b01565b9586600a8201550155600354948594604051928352878301526040820152a2604051908152f35b60405162461bcd60e51b815260206004820152601e60248201527f6d696e506c61796572732065786365656473204d41585f504c415945525300006044820152606490fd5b606460405162461bcd60e51b815260206004820152602060248201527f6d696e506c617965727320746f6f206c6f7720666f7220656e747279206665656044820152fd5b66038d7ea4c680008210156116c957600f61157d565b600a61157d565b60405162461bcd60e51b8152602060048201526016602482015275456e74727920666565206f7574206f662072616e676560501b6044820152606490fd5b5066071afd498d0000821115611566565b3461022e575f36600319011261022e576002546040516001600160a01b039091168152602090f35b3461022e57602036600319011261022e5761176061293b565b611768612ac8565b6001600160a01b031680156117bd576020817f3df77beb5db05fcdd70a30fc8adf3f83f9501b68579455adbd100b8180940394926bffffffffffffffffffffffff60a01b6002541617600255604051908152a1005b60405162461bcd60e51b8152602060048201526016602482015275496e76616c6964206f7261636c65206164647265737360501b6044820152606490fd5b3461022e575f36600319011261022e57611813612ac8565b5f80546001600160a01b0319811682556001600160a01b03167f8be0079c531659141344cd1fd0a4f28419497f9722a3daafe3b4186f6b6457e08280a3005b3461022e57606036600319011261022e5767ffffffffffffffff60043560243582811161022e57611887903690600401612951565b91909260443590811161022e576118a2903690600401612951565b600254909391926001600160a01b03916118bf9083163314612c18565b84830361192d575f5b8381106118d157005b61192890825f5287602060068152856118f76118f2858a60405f2096612c5b565b612c6b565b165f525260405f2061191260ff600a83015460081c16612c7f565b600561191f838a8a612c5b565b35910155612af3565b6118c8565b60405162461bcd60e51b8152602060048201526015602482015274082e4e4c2f240d8cadccee8d040dad2e6dac2e8c6d605b1b6044820152606490fd5b3461022e57602036600319011261022e57600435611986612ac8565b805f526004602052600d60405f206119b1600882015460ff8160081c16908115611a3f575b506131b9565b018054908115611a07577ff175fe4c4704cc2f1e905cb3469231d686baf5c0f07e11aabdc7ee9396882f2c915f602092556119fe5f8080808560018060a01b038254165af1610ce0612bd9565b604051908152a2005b60405162461bcd60e51b815260206004820152601060248201526f4e6f20706c6174666f726d206665657360801b6044820152606490fd5b60ff915060101c16856119ab565b3461022e5760208060031936011261022e5760043590611a6b612ac8565b815f526004815260ff600890611a88818360405f20015416612b0e565b835f526004835260405f20600191611aa38383015415612b4c565b600a9384830154610e10810180911161066a574210611c665760069485840154600b8501541115611c21578184018054848160101c16611be35762ff00ff1916620100001790555f9586865b611b21575b897fa2a9a573309d57801ef14df08ec67752d7562890a8413448f02c9caa7d0c05df8a8a604051908152a2005b895f5283895260405f208054821015611bdd5781611b3e91612a9f565b60018060a01b0391549060031b1c168a5f52828a5260405f20815f528a52858460405f200154861c16611b7c575b50611b7690612af3565b86611aef565b975f80808093611b9160098c01548092612b01565b9c5af1611b9c612bd9565b5015611ba8578a611b6c565b60405162461bcd60e51b8152600481018a9052600d60248201526c1499599d5b990819985a5b1959609a1b6044820152606490fd5b50611af4565b60405162461bcd60e51b8152600481018a9052601660248201527511d85b5948185b1c9958591e4818d85b98d95b1b195960521b6044820152606490fd5b60405162461bcd60e51b815260048101889052601760248201527f47616d652068617320656e6f75676820706c61796572730000000000000000006044820152606490fd5b60405162461bcd60e51b815260048101879052601660248201527511dc9858d9481c195c9a5bd9081b9bdd08195b99195960521b6044820152606490fd5b3461022e57604036600319011261022e57611cbd61293b565b6024359081151580920361022e577f60d00706f06f6d09b5d1016c03123544f47b263dbf449d0a2713b17adad0545391604091611cf8612ac8565b60018060a01b031690815f526001602052825f2060ff1981541660ff831617905582519182526020820152a1005b3461022e575f36600319011261022e57602060405160038152f35b3461022e57604036600319011261022e57611d5a612925565b6004355f52600660205260405f209060018060a01b03165f5260205260ff60405f20610907600b825492600581015460068201546007830154600884015491600985015493611dc18a600a8801541696611dba604051809a8193016129ba565b0388612a67565b604051998a9960a01c168952602089015260408801526060870152608086015260a0850152151560c08401526101008060e08501528301906128e7565b3461022e575f36600319011261022e576020600354604051908152f35b3461022e575f36600319011261022e576020604051733055913c90fcc1a6ce9a358911721eeb942013a18152f35b3461022e575f36600319011261022e57602060405160648152f35b3461022e57608036600319011261022e5760443567ffffffffffffffff811161022e57611e95903690600401612951565b60643591611eae60018060a01b03600254163314612c18565b6004355f526004602052611ecb60ff600860405f20015416612b0e565b6004355f52600460205260405f2091600560205260405f206024355f5260205260405f209360ff6005860154166122d057600285015442106122995780612287575b505f5b8181106121bf575050506001918260ff19600583015416176005820155600380910192835460405160243581528160208201527f50175b23949579f5a257c33ccacf5689f481c882821df6a2a9294c7b5c67fc55604060043592a28160048501546024351091826121b5575b5050156120035790600491611fc3600583860195611f9a8754612af3565b80975585355f528160205260405f20875f5260205260405f209687554284880155015442612b01565b6002850155845480928501551c910155546040519081524260208201525f60408201525f60608201525f80516020613237833981519152608060043592a2005b915091506004355f52600460205260405f209060088201805460ff8160081c166121775761ffff19166101001790554260028301555f9283825b612100575b5050506001600160a01b03821691821515806120f3575b61205f57005b5f80808094936007829501908154968792555af161207b612bd9565b50156120b65760405191825260208201527f74c933f1ef06ea1a136628fdaebfdefe261decc439e340a4d8091801861f70b0604060043592a2005b60405162461bcd60e51b8152602060048201526015602482015274141c9a5e99481d1c985b9cd9995c8819985a5b1959605a1b6044820152606490fd5b5060078201541515612059565b6004355f52600860205260405f208054821015612171578161212191612a9f565b60018060a01b03915490841b1c166004355f52600660205260405f20815f5260205260ff600a60405f20015416612162575061215c90612af3565b8261203d565b93945050505090828080612042565b50612042565b60405162461bcd60e51b815260206004820152601660248201527511d85b5948185b1c9958591e48199a5b985b1a5e995960521b6044820152606490fd5b1190508186611f7c565b6004355f90815260066020526040902061220b91906001600160a01b036121ea6118f2848789612c5b565b165f5260205260405f20600a8101805460ff8116612210575b505050612af3565b611f10565b60ff19169055612223600b820154612982565b601f90818111612265575b5050600b60227042656c6f77206375746f66662072616e6b60781b019101556003860161225b8154612d25565b9055868080612203565b61228091600b84015f5260205f20910160051c810190612d0f565b878061222e565b61229390600435612d31565b84611f0d565b60405162461bcd60e51b815260206004820152600f60248201526e149bdd5b99081b9bdd08195b991959608a1b6044820152606490fd5b60405162461bcd60e51b815260206004820152601760248201527f526f756e6420616c72656164792066696e616c697a65640000000000000000006044820152606490fd5b3461022e575f36600319011261022e57602060405173940181a94a35a4569e4529a3cdfb74e38fd986318152f35b3461022e5760208060031936011261022e576004355f526008815260405f20604051908183825491828152019081925f52845f20905f5b868282106123d857868661239082880383612a67565b60405192839281840190828552518091526040840192915f5b8281106123b857505050500390f35b83516001600160a01b0316855286955093810193928101926001016123a9565b83546001600160a01b03168552909301926001928301920161237a565b3461022e5760a036600319011261022e57600435612411612925565b67ffffffffffffffff9160443583811161022e573660238201121561022e57806004013593841161022e576024903682868301011161022e5760843594600b60018060a01b039661246788600254163314612c18565b855f526020976004895261248460ff600860405f20015416612b0e565b865f526006895260405f20971696875f52885260405f2090600a8201906124ae60ff835416612cc3565b80612667575b5060ff198154169055016124c88154612982565b601f811161262e575b505f601f83116001146125a15796829160609493867f1109200899f9b44fee78f968fad81da002ef9a1c60b658214dd929836fcc3f9498999a5f92612594575b50508360011b905f198560031b1c19161790555b865f5260048152600360405f2001548061256e575b50816040519586946040865282604087015201858501375f83830185015260643590830152601f01601f19168101030190a3005b6005825260405f20905f528152600360405f200161258c8154612d25565b90558861253a565b860101359050868b612511565b601f19831690825f52885f20915f5b818110612615575091849391606096957f1109200899f9b44fee78f968fad81da002ef9a1c60b658214dd929836fcc3f94999a9b94106125fa575b5050600183811b019055612525565b85018701355f19600386901b60f8161c1916905589806125eb565b91928a600181928a878b010135815501940192016125b0565b61265790825f52885f20601f850160051c8101918a861061265d575b601f0160051c0190612d0f565b876124d1565b909150819061264a565b6126719088612d31565b896124b4565b3461022e575f36600319011261022e5760206040516107d08152f35b3461022e57602036600319011261022e576004355f52600460205260405f208054600182015491600281015460038201546004830154600584015460068501546007860154600887015491600988015493600a89015495600b8a015497600c8b015499600d8c01549b600e01549c6040519e8f91825260208201526040015260608d015260808c015260a08b015260c08a015260e089015260ff811615156101008901528060081c60ff16151561012089015260101c60ff1615156101408801526101608701526101808601526101a08501526101c08401526101e083015261020082015261022090f35b3461022e57602036600319011261022e5761090761279d600435612fb9565b6040519182916020835260208301906128e7565b3461022e575f36600319011261022e57602060405161012c8152f35b3461022e57604036600319011261022e5760243560ff811680910361022e576004355f52600760205260405f20905f52602052602060018060a01b0360405f205416604051908152f35b3461022e57602036600319011261022e57600435612833612ac8565b805f526004602052600c60405f2061285d600882015460ff8160081c16908115611a3f57506131b9565b0180549081156128aa577f6213671b7ab64c8ac0d893456ba54d8a2b4935c784ae62b98b5c349e603aa3bb915f602092556119fe5f8080808560018060a01b038254165af1610ce0612bd9565b60405162461bcd60e51b81526020600482015260156024820152744e6f206f7065726174696f6e7320737572706c757360581b6044820152606490fd5b91908251928382525f5b848110612911575050825f602080949584010152601f8019910116010190565b6020818301810151848301820152016128f1565b602435906001600160a01b038216820361022e57565b600435906001600160a01b038216820361022e57565b9181601f8401121561022e5782359167ffffffffffffffff831161022e576020808501948460051b01011161022e57565b90600182811c921680156129b0575b602083101461299c57565b634e487b7160e01b5f52602260045260245ffd5b91607f1691612991565b905f92918054916129ca83612982565b9182825260019384811690815f14612a2857506001146129eb575b50505050565b90919394505f52602092835f2092845f945b838610612a1457505050500101905f8080806129e5565b8054858701830152940193859082016129fd565b9294505050602093945060ff191683830152151560051b0101905f8080806129e5565b6040810190811067ffffffffffffffff82111761067e57604052565b90601f8019910116810190811067ffffffffffffffff82111761067e57604052565b604090600319011261022e576004359060243590565b8054821015612ab4575f5260205f2001905f90565b634e487b7160e01b5f52603260045260245ffd5b5f546001600160a01b03163303612adb57565b60405163118cdaa760e01b8152336004820152602490fd5b5f19811461066a5760010190565b9190820180921161066a57565b15612b1557565b60405162461bcd60e51b815260206004820152600f60248201526e47616d65206e6f742061637469766560881b6044820152606490fd5b15612b5357565b60405162461bcd60e51b815260206004820152601460248201527311d85b5948185b1c9958591e481cdd185c9d195960621b6044820152606490fd5b15612b9657565b60405162461bcd60e51b815260206004820152600e60248201526d11d85b594818d85b98d95b1b195960921b6044820152606490fd5b9190820391821161066a57565b3d15612c13573d9067ffffffffffffffff821161067e5760405191612c08601f8201601f191660200184612a67565b82523d5f602084013e565b606090565b15612c1f57565b60405162461bcd60e51b815260206004820152601460248201527313db9b1e481bdc9858db194818d85b8818d85b1b60621b6044820152606490fd5b9190811015612ab45760051b0190565b356001600160a01b038116810361022e5790565b15612c8657565b60405162461bcd60e51b8152602060048201526015602482015274141b185e595c881b9bdd081c9959da5cdd195c9959605a1b6044820152606490fd5b15612cca57565b60405162461bcd60e51b815260206004820152601960248201527f506c6179657220616c726561647920656c696d696e61746564000000000000006044820152606490fd5b818110612d1a575050565b5f8155600101612d0f565b801561066a575f190190565b5f818152600460205260408120600c810190815491858310612e0157612d5986600e94612bcc565b905501612d67848254612b01565b905560018060a01b03908080808685600254165af1612d84612bd9565b5015612dbc5760207f08f2f9c7c190644b682ac90756570b87fbd347f1c2ab6b655f843327ca4f5bb4916002541693604051908152a3565b60405162461bcd60e51b815260206004820152601860248201527f476173207265696d62757273656d656e74206661696c656400000000000000006044820152606490fd5b60405162461bcd60e51b815260206004820152601c60248201527f496e73756666696369656e74206f7065726174696f6e732066756e64000000006044820152606490fd5b905f918252602060048152604092838120600881015460ff811615612f8d5760101c60ff16612f63576001810154612f3357600a8101544210612efa57600b600682015491015411612ec85760019380519283019083821067ffffffffffffffff831117612eb45752815290565b634e487b7160e01b83526041600452602483fd5b76135a5b9a5b5d5b481c1b185e595c9cc81b9bdd081b595d604a1b90935191612ef083612a4b565b6017835282015290565b507f526567697374726174696f6e20706572696f64206e6f7420656e64656400000090935191612f2983612a4b565b601d835282015290565b507311d85b5948185b1c9958591e481cdd185c9d195960621b90935191612f5983612a4b565b6014835282015290565b506d11d85b594818d85b98d95b1b195960921b90935191612f8383612a4b565b600e835282015290565b50506e47616d65206e6f742061637469766560881b90935191612faf83612a4b565b600f835282015290565b5f526020600481526040805f20600881015460ff8160101c166130b75760081c60ff1661309357600181015461307457600a8101544210156130215750702922a3a4a9aa2920aa24a7a72fa7a822a760791b90519161301783612a4b565b6011835282015290565b6006810154600b909101541161304f576d149150511657d513d7d4d510549560921b905191612f8383612a4b565b6a155391115491925313115160aa1b90519161306a83612a4b565b600b835282015290565b50634c49564560e01b90519161308983612a4b565b6004835282015290565b506811925390531256915160ba1b9051916130ad83612a4b565b6009835282015290565b50506810d05390d15313115160ba1b9051916130ad83612a4b565b905f918252600460205260408220916001830154158015906131a8575b6131a257600a83015480421061319b576131099042612bcc565b9061012c938483101561319357600c810154600f810290808204600f149015171561317f5760646009910491015460038102908082046003149015171561317f57808210156131775750915b840393841161316357509190565b634e487b7160e01b81526011600452602490fd5b905091613155565b634e487b7160e01b83526011600452602483fd5b509250508190565b5091508190565b91508190565b5060ff600884015460101c166130ef565b156131c057565b60405162461bcd60e51b815260206004820152600e60248201526d11d85b59481b9bdd08195b99195960921b6044820152606490fd5b156131fd57565b60405162461bcd60e51b815260206004820152601160248201527015da5d1a191c985dd85b0819985a5b1959607a1b6044820152606490fdfe90484f768a0888d4a8a1e4e224441f504d49ed53be624d5ed6c2f86ee97e15daa2646970667358221220d2744eba83e48c8d1905736e43c7baf20542dea6d40713f74b8a76fab19e9fdf64736f6c63430008140033","linkReferences":{}},"methodIdentifiers":{"AERO()":"1691bd6f","CAKE()":"4ca6ef28","GRACE_PERIOD()":"c1a287e2","MAX_ENTRY_FEE()":"f50ab0de","MAX_PLAYERS()":"4411b3eb","MAX_REWARD_MULTIPLIER()":"646f6eb4","MIN_ENTRY_FEE()":"81883759","OPERATIONS_BPS()":"125050bf","PLATFORM_BPS()":"ce91e164","PRIZE_POOL_BPS()":"8bc17f52","REWARD_WINDOW()":"0e8e8127","START_REWARD_PCT()":"bb975f7b","USDC()":"89a30271","WETH()":"ad5c4648","applyPenalty(uint256,address,address,uint256,uint256,bytes32,uint256)":"8f78a261","approvedProtocols(address)":"a8c22675","canGameStart(uint256)":"9aacf805","cancelGame(uint256)":"69958ab9","commitStartingValues(uint256,address[],uint256[])":"6d9a2bac","createGame(uint256,uint256,uint256,uint256,uint256)":"7efed65e","currentGameId()":"536a3ddc","eliminatePlayer(uint256,address,string,bytes32,uint256)":"130663ca","emergencyWithdraw()":"db2e21bc","finalizeRound(uint256,uint256,address[],uint256)":"1a86743e","gamePlayerList(uint256,uint256)":"ed456ee4","games(uint256)":"117a5b90","getAdjustedBalances(uint256,address)":"d95e37eb","getGameFinancials(uint256)":"ecc31ce7","getGamePlayers(uint256)":"15a40f49","getGameStatus(uint256)":"0f1bf454","getPlayer(uint256,address)":"6454e58d","getStartReward(uint256)":"ca707e97","oracle()":"7dc0d1d0","owner()":"8da5cb5b","players(uint256,address)":"c0f80921","register(uint256)":"f207564e","renounceOwnership()":"715018a6","rounds(uint256,uint256)":"e6da9213","setOracle(address)":"7adbf973","setProtocolApproval(address,bool)":"67091a2e","squareToPlayer(uint256,uint8)":"06bc0587","startGame(uint256)":"e5ed1d59","transferOwnership(address)":"f2fde38b","withdrawOperationsSurplus(uint256)":"02e13b3a","withdrawPlatformFees(uint256)":"6aa21416"},"id":32}